{
  "contractName": "GameContract",
  "abi": [
    {
      "constant": true,
      "inputs": [
        {
          "name": "",
          "type": "address"
        },
        {
          "name": "",
          "type": "uint256"
        }
      ],
      "name": "balanceOf",
      "outputs": [
        {
          "name": "",
          "type": "uint256"
        }
      ],
      "payable": false,
      "stateMutability": "view",
      "type": "function",
      "signature": "0x00fdd58e"
    },
    {
      "inputs": [],
      "payable": false,
      "stateMutability": "nonpayable",
      "type": "constructor",
      "signature": "constructor"
    },
    {
      "anonymous": false,
      "inputs": [
        {
          "indexed": false,
          "name": "gameId",
          "type": "uint256"
        },
        {
          "indexed": false,
          "name": "hostPlayer",
          "type": "address"
        },
        {
          "indexed": false,
          "name": "depositAmount",
          "type": "uint256"
        },
        {
          "indexed": false,
          "name": "openTime",
          "type": "uint256"
        }
      ],
      "name": "CreatedGame",
      "type": "event",
      "signature": "0x5cc2fd1a9cd222e7445cb60fb91f424948c94aa8b953af5f229d0d08942762a8"
    },
    {
      "constant": false,
      "inputs": [
        {
          "name": "_hand",
          "type": "uint256"
        },
        {
          "name": "_passward",
          "type": "string"
        }
      ],
      "name": "createGame",
      "outputs": [],
      "payable": true,
      "stateMutability": "payable",
      "type": "function",
      "signature": "0xa52169a4"
    },
    {
      "constant": false,
      "inputs": [
        {
          "name": "_gameId",
          "type": "uint256"
        }
      ],
      "name": "deposit",
      "outputs": [],
      "payable": true,
      "stateMutability": "payable",
      "type": "function",
      "signature": "0xb6b55f25"
    },
    {
      "constant": false,
      "inputs": [
        {
          "name": "_gameId",
          "type": "uint256"
        }
      ],
      "name": "closeGame",
      "outputs": [],
      "payable": false,
      "stateMutability": "nonpayable",
      "type": "function",
      "signature": "0x2d6ef310"
    },
    {
      "constant": false,
      "inputs": [
        {
          "name": "_gameId",
          "type": "uint256"
        },
        {
          "name": "_hand",
          "type": "uint256"
        }
      ],
      "name": "joinGame",
      "outputs": [],
      "payable": true,
      "stateMutability": "payable",
      "type": "function",
      "signature": "0xb60b9fcb"
    },
    {
      "constant": false,
      "inputs": [
        {
          "name": "_gameId",
          "type": "uint256"
        }
      ],
      "name": "closeGameByGuest",
      "outputs": [],
      "payable": false,
      "stateMutability": "nonpayable",
      "type": "function",
      "signature": "0x2ffb1094"
    },
    {
      "constant": false,
      "inputs": [
        {
          "name": "_gameId",
          "type": "uint256"
        },
        {
          "name": "_hand",
          "type": "uint256"
        },
        {
          "name": "_passward",
          "type": "string"
        }
      ],
      "name": "gameResult",
      "outputs": [],
      "payable": false,
      "stateMutability": "nonpayable",
      "type": "function",
      "signature": "0x29b9b29f"
    },
    {
      "constant": false,
      "inputs": [
        {
          "name": "_gameId",
          "type": "uint256"
        }
      ],
      "name": "getDepositedEtherFromWinner",
      "outputs": [],
      "payable": true,
      "stateMutability": "payable",
      "type": "function",
      "signature": "0x738be308"
    },
    {
      "constant": false,
      "inputs": [
        {
          "name": "_gameId",
          "type": "uint256"
        }
      ],
      "name": "getDepositedEther",
      "outputs": [],
      "payable": true,
      "stateMutability": "payable",
      "type": "function",
      "signature": "0xf2b37d1d"
    },
    {
      "constant": true,
      "inputs": [
        {
          "name": "_gameId",
          "type": "uint256"
        }
      ],
      "name": "getGameInfo",
      "outputs": [
        {
          "components": [
            {
              "name": "gameId",
              "type": "uint256"
            },
            {
              "name": "hostPlayer",
              "type": "address"
            },
            {
              "name": "hostPlayerHand",
              "type": "bytes32"
            },
            {
              "name": "guestPlayer",
              "type": "address"
            },
            {
              "name": "guestPlayerHand",
              "type": "uint256"
            },
            {
              "name": "gameStatus",
              "type": "uint256"
            },
            {
              "name": "depositAmount",
              "type": "uint256"
            },
            {
              "name": "lastUpdatedTime",
              "type": "uint256"
            }
          ],
          "name": "",
          "type": "tuple"
        }
      ],
      "payable": false,
      "stateMutability": "view",
      "type": "function",
      "signature": "0x47e1d550"
    },
    {
      "constant": true,
      "inputs": [],
      "name": "getGameId",
      "outputs": [
        {
          "name": "",
          "type": "uint256"
        }
      ],
      "payable": false,
      "stateMutability": "view",
      "type": "function",
      "signature": "0xc0bd8351"
    }
  ],
  "bytecode": "0x6080604052600060015534801561001557600080fd5b50336000806101000a81548173ffffffffffffffffffffffffffffffffffffffff021916908373ffffffffffffffffffffffffffffffffffffffff160217905550612212806100656000396000f3fe6080604052600436106100ae576000357c0100000000000000000000000000000000000000000000000000000000900463ffffffff168062fdd58e146100b357806329b9b29f146100f05780632d6ef310146101195780632ffb10941461014257806347e1d5501461016b578063738be308146101a8578063a52169a4146101c4578063b60b9fcb146101e0578063b6b55f25146101fc578063c0bd835114610218578063f2b37d1d14610243575b600080fd5b3480156100bf57600080fd5b506100da60048036036100d59190810190611e22565b61025f565b6040516100e79190612078565b60405180910390f35b3480156100fc57600080fd5b5061011760048036036101129190810190611f17565b610284565b005b34801561012557600080fd5b50610140600480360361013b9190810190611e5e565b6108af565b005b34801561014e57600080fd5b5061016960048036036101649190810190611e5e565b610b8c565b005b34801561017757600080fd5b50610192600480360361018d9190810190611e5e565b610e69565b60405161019f919061205c565b60405180910390f35b6101c260048036036101bd9190810190611e5e565b610f80565b005b6101de60048036036101d99190810190611e87565b61132f565b005b6101fa60048036036101f59190810190611edb565b611557565b005b61021660048036036102119190810190611e5e565b6117d4565b005b34801561022457600080fd5b5061022d61187e565b60405161023a9190612078565b60405180910390f35b61025d60048036036102589190810190611e5e565b611888565b005b6002602052816000526040600020602052806000526040600020600091509150505481565b61028c611d2f565b600360008581526020019081526020016000206101006040519081016040529081600082015481526020016001820160009054906101000a900473ffffffffffffffffffffffffffffffffffffffff1673ffffffffffffffffffffffffffffffffffffffff1673ffffffffffffffffffffffffffffffffffffffff168152602001600282015481526020016003820160009054906101000a900473ffffffffffffffffffffffffffffffffffffffff1673ffffffffffffffffffffffffffffffffffffffff1673ffffffffffffffffffffffffffffffffffffffff16815260200160048201548152602001600582015481526020016006820154815260200160078201548152505090503373ffffffffffffffffffffffffffffffffffffffff16816020015173ffffffffffffffffffffffffffffffffffffffff161415156103d457600080fd5b60018160a001511415156103e757600080fd5b82826040516020018083815260200182805190602001908083835b6020831015156104275780518252602082019150602081019050602083039250610402565b6001836020036101000a0380198251168184511680821785525050505050509050019250505060405160208183030381529060405280519060200120816040015114151561047457600080fd5b80608001518314156104905760028160a00181815250506107c8565b6000831480156104a4575060018160800151145b806104bf57506001831480156104be575060028160800151145b5b806104da57506002831480156104d9575060008160800151145b5b156106555760038160a00181815250508060c0015160026000836020015173ffffffffffffffffffffffffffffffffffffffff1673ffffffffffffffffffffffffffffffffffffffff1681526020019081526020016000206000868152602001908152602001600020540160026000836020015173ffffffffffffffffffffffffffffffffffffffff1673ffffffffffffffffffffffffffffffffffffffff1681526020019081526020016000206000868152602001908152602001600020819055508060c0015160026000836060015173ffffffffffffffffffffffffffffffffffffffff1673ffffffffffffffffffffffffffffffffffffffff1681526020019081526020016000206000868152602001908152602001600020540360026000836060015173ffffffffffffffffffffffffffffffffffffffff1673ffffffffffffffffffffffffffffffffffffffff1681526020019081526020016000206000868152602001908152602001600020819055506107c7565b60048160a00181815250508060c0015160026000836060015173ffffffffffffffffffffffffffffffffffffffff1673ffffffffffffffffffffffffffffffffffffffff1681526020019081526020016000206000868152602001908152602001600020540160026000836060015173ffffffffffffffffffffffffffffffffffffffff1673ffffffffffffffffffffffffffffffffffffffff1681526020019081526020016000206000868152602001908152602001600020819055508060c0015160026000836020015173ffffffffffffffffffffffffffffffffffffffff1673ffffffffffffffffffffffffffffffffffffffff1681526020019081526020016000206000868152602001908152602001600020540360026000836020015173ffffffffffffffffffffffffffffffffffffffff1673ffffffffffffffffffffffffffffffffffffffff1681526020019081526020016000206000868152602001908152602001600020819055505b5b80600360008681526020019081526020016000206000820151816000015560208201518160010160006101000a81548173ffffffffffffffffffffffffffffffffffffffff021916908373ffffffffffffffffffffffffffffffffffffffff1602179055506040820151816002015560608201518160030160006101000a81548173ffffffffffffffffffffffffffffffffffffffff021916908373ffffffffffffffffffffffffffffffffffffffff1602179055506080820151816004015560a0820151816005015560c0820151816006015560e0820151816007015590505050505050565b6108b7611d2f565b600360008381526020019081526020016000206101006040519081016040529081600082015481526020016001820160009054906101000a900473ffffffffffffffffffffffffffffffffffffffff1673ffffffffffffffffffffffffffffffffffffffff1673ffffffffffffffffffffffffffffffffffffffff168152602001600282015481526020016003820160009054906101000a900473ffffffffffffffffffffffffffffffffffffffff1673ffffffffffffffffffffffffffffffffffffffff1673ffffffffffffffffffffffffffffffffffffffff168152602001600482015481526020016005820154815260200160068201548152602001600782015481525050905060008160a001511415156109d457600080fd5b3373ffffffffffffffffffffffffffffffffffffffff16816020015173ffffffffffffffffffffffffffffffffffffffff16141515610a1257600080fd5b610e1042038160e00151111515610a2857600080fd5b8060c0015160026000836020015173ffffffffffffffffffffffffffffffffffffffff1673ffffffffffffffffffffffffffffffffffffffff16815260200190815260200160002060008481526020019081526020016000205410151515610a8f57600080fd5b610a9c8160c00151611ce5565b60058160a001818152505080600360008481526020019081526020016000206000820151816000015560208201518160010160006101000a81548173ffffffffffffffffffffffffffffffffffffffff021916908373ffffffffffffffffffffffffffffffffffffffff1602179055506040820151816002015560608201518160030160006101000a81548173ffffffffffffffffffffffffffffffffffffffff021916908373ffffffffffffffffffffffffffffffffffffffff1602179055506080820151816004015560a0820151816005015560c0820151816006015560e082015181600701559050505050565b610b94611d2f565b600360008381526020019081526020016000206101006040519081016040529081600082015481526020016001820160009054906101000a900473ffffffffffffffffffffffffffffffffffffffff1673ffffffffffffffffffffffffffffffffffffffff1673ffffffffffffffffffffffffffffffffffffffff168152602001600282015481526020016003820160009054906101000a900473ffffffffffffffffffffffffffffffffffffffff1673ffffffffffffffffffffffffffffffffffffffff1673ffffffffffffffffffffffffffffffffffffffff168152602001600482015481526020016005820154815260200160068201548152602001600782015481525050905060018160a00151141515610cb157600080fd5b3373ffffffffffffffffffffffffffffffffffffffff16816060015173ffffffffffffffffffffffffffffffffffffffff16141515610cef57600080fd5b610e1042038160e00151111515610d0557600080fd5b8060c0015160026000836060015173ffffffffffffffffffffffffffffffffffffffff1673ffffffffffffffffffffffffffffffffffffffff16815260200190815260200160002060008481526020019081526020016000205410151515610d6c57600080fd5b610d798160c00151611ce5565b60058160a001818152505080600360008481526020019081526020016000206000820151816000015560208201518160010160006101000a81548173ffffffffffffffffffffffffffffffffffffffff021916908373ffffffffffffffffffffffffffffffffffffffff1602179055506040820151816002015560608201518160030160006101000a81548173ffffffffffffffffffffffffffffffffffffffff021916908373ffffffffffffffffffffffffffffffffffffffff1602179055506080820151816004015560a0820151816005015560c0820151816006015560e082015181600701559050505050565b610e71611d2f565b600360008381526020019081526020016000206101006040519081016040529081600082015481526020016001820160009054906101000a900473ffffffffffffffffffffffffffffffffffffffff1673ffffffffffffffffffffffffffffffffffffffff1673ffffffffffffffffffffffffffffffffffffffff168152602001600282015481526020016003820160009054906101000a900473ffffffffffffffffffffffffffffffffffffffff1673ffffffffffffffffffffffffffffffffffffffff1673ffffffffffffffffffffffffffffffffffffffff1681526020016004820154815260200160058201548152602001600682015481526020016007820154815250509050919050565b610f88611d2f565b600360008381526020019081526020016000206101006040519081016040529081600082015481526020016001820160009054906101000a900473ffffffffffffffffffffffffffffffffffffffff1673ffffffffffffffffffffffffffffffffffffffff1673ffffffffffffffffffffffffffffffffffffffff168152602001600282015481526020016003820160009054906101000a900473ffffffffffffffffffffffffffffffffffffffff1673ffffffffffffffffffffffffffffffffffffffff1673ffffffffffffffffffffffffffffffffffffffff168152602001600482015481526020016005820154815260200160068201548152602001600782015481525050905060038160a001511480156110d557503373ffffffffffffffffffffffffffffffffffffffff16816020015173ffffffffffffffffffffffffffffffffffffffff16145b8061111f575060048160a0015114801561111e57503373ffffffffffffffffffffffffffffffffffffffff16816060015173ffffffffffffffffffffffffffffffffffffffff16145b5b151561112a57600080fd5b60028160c0015102600260003373ffffffffffffffffffffffffffffffffffffffff1673ffffffffffffffffffffffffffffffffffffffff1681526020019081526020016000206000848152602001908152602001600020541015151561119057600080fd5b6111e9600260003373ffffffffffffffffffffffffffffffffffffffff1673ffffffffffffffffffffffffffffffffffffffff168152602001908152602001600020600084815260200190815260200160002054611ce5565b6000600260003373ffffffffffffffffffffffffffffffffffffffff1673ffffffffffffffffffffffffffffffffffffffff16815260200190815260200160002060008481526020019081526020016000208190555060058160a001818152505080600360008481526020019081526020016000206000820151816000015560208201518160010160006101000a81548173ffffffffffffffffffffffffffffffffffffffff021916908373ffffffffffffffffffffffffffffffffffffffff1602179055506040820151816002015560608201518160030160006101000a81548173ffffffffffffffffffffffffffffffffffffffff021916908373ffffffffffffffffffffffffffffffffffffffff1602179055506080820151816004015560a0820151816005015560c0820151816006015560e082015181600701559050505050565b6001805401600181905550600082826040516020018083815260200182805190602001908083835b60208310151561137c5780518252602082019150602081019050602083039250611357565b6001836020036101000a038019825116818451168082178552505050505050905001925050506040516020818303038152906040528051906020012090506101006040519081016040528060015481526020013373ffffffffffffffffffffffffffffffffffffffff168152602001828152602001600173ffffffffffffffffffffffffffffffffffffffff1681526020016000815260200160008152602001348152602001428152506003600060015481526020019081526020016000206000820151816000015560208201518160010160006101000a81548173ffffffffffffffffffffffffffffffffffffffff021916908373ffffffffffffffffffffffffffffffffffffffff1602179055506040820151816002015560608201518160030160006101000a81548173ffffffffffffffffffffffffffffffffffffffff021916908373ffffffffffffffffffffffffffffffffffffffff1602179055506080820151816004015560a0820151816005015560c0820151816006015560e082015181600701559050506115136001546117d4565b7f5cc2fd1a9cd222e7445cb60fb91f424948c94aa8b953af5f229d0d08942762a860015433344260405161154a9493929190612093565b60405180910390a1505050565b61155f611d2f565b600360008481526020019081526020016000206101006040519081016040529081600082015481526020016001820160009054906101000a900473ffffffffffffffffffffffffffffffffffffffff1673ffffffffffffffffffffffffffffffffffffffff1673ffffffffffffffffffffffffffffffffffffffff168152602001600282015481526020016003820160009054906101000a900473ffffffffffffffffffffffffffffffffffffffff1673ffffffffffffffffffffffffffffffffffffffff1673ffffffffffffffffffffffffffffffffffffffff1681526020016004820154815260200160058201548152602001600682015481526020016007820154815250509050348160c0015114151561167b57600080fd5b60008160a0015114151561168e57600080fd5b33816060019073ffffffffffffffffffffffffffffffffffffffff16908173ffffffffffffffffffffffffffffffffffffffff16815250508181608001818152505060018160a0018181525050428160e00181815250506116ee836117d4565b80600360008581526020019081526020016000206000820151816000015560208201518160010160006101000a81548173ffffffffffffffffffffffffffffffffffffffff021916908373ffffffffffffffffffffffffffffffffffffffff1602179055506040820151816002015560608201518160030160006101000a81548173ffffffffffffffffffffffffffffffffffffffff021916908373ffffffffffffffffffffffffffffffffffffffff1602179055506080820151816004015560a0820151816005015560c0820151816006015560e08201518160070155905050505050565b34600260003373ffffffffffffffffffffffffffffffffffffffff1673ffffffffffffffffffffffffffffffffffffffff16815260200190815260200160002060008381526020019081526020016000205401600260003373ffffffffffffffffffffffffffffffffffffffff1673ffffffffffffffffffffffffffffffffffffffff16815260200190815260200160002060008381526020019081526020016000208190555050565b6000600154905090565b611890611d2f565b600360008381526020019081526020016000206101006040519081016040529081600082015481526020016001820160009054906101000a900473ffffffffffffffffffffffffffffffffffffffff1673ffffffffffffffffffffffffffffffffffffffff1673ffffffffffffffffffffffffffffffffffffffff168152602001600282015481526020016003820160009054906101000a900473ffffffffffffffffffffffffffffffffffffffff1673ffffffffffffffffffffffffffffffffffffffff1673ffffffffffffffffffffffffffffffffffffffff168152602001600482015481526020016005820154815260200160068201548152602001600782015481525050905060028160a001511415156119ad57600080fd5b3373ffffffffffffffffffffffffffffffffffffffff16816020015173ffffffffffffffffffffffffffffffffffffffff161480611a1a57503373ffffffffffffffffffffffffffffffffffffffff16816060015173ffffffffffffffffffffffffffffffffffffffff16145b1515611a2557600080fd5b8060c00151600260003373ffffffffffffffffffffffffffffffffffffffff1673ffffffffffffffffffffffffffffffffffffffff16815260200190815260200160002060008481526020019081526020016000205410151515611a8857600080fd5b611ae1600260003373ffffffffffffffffffffffffffffffffffffffff1673ffffffffffffffffffffffffffffffffffffffff168152602001908152602001600020600084815260200190815260200160002054611ce5565b6000600260003373ffffffffffffffffffffffffffffffffffffffff1673ffffffffffffffffffffffffffffffffffffffff168152602001908152602001600020600084815260200190815260200160002081905550600060026000836020015173ffffffffffffffffffffffffffffffffffffffff1673ffffffffffffffffffffffffffffffffffffffff168152602001908152602001600020600084815260200190815260200160002054148015611bef5750600060026000836060015173ffffffffffffffffffffffffffffffffffffffff1673ffffffffffffffffffffffffffffffffffffffff168152602001908152602001600020600084815260200190815260200160002054145b15611ce15760058160a001818152505080600360008481526020019081526020016000206000820151816000015560208201518160010160006101000a81548173ffffffffffffffffffffffffffffffffffffffff021916908373ffffffffffffffffffffffffffffffffffffffff1602179055506040820151816002015560608201518160030160006101000a81548173ffffffffffffffffffffffffffffffffffffffff021916908373ffffffffffffffffffffffffffffffffffffffff1602179055506080820151816004015560a0820151816005015560c0820151816006015560e082015181600701559050505b5050565b3373ffffffffffffffffffffffffffffffffffffffff166108fc829081150290604051600060405180830381858888f19350505050158015611d2b573d6000803e3d6000fd5b5050565b6101006040519081016040528060008152602001600073ffffffffffffffffffffffffffffffffffffffff16815260200160008019168152602001600073ffffffffffffffffffffffffffffffffffffffff168152602001600081526020016000815260200160008152602001600081525090565b6000611db08235612177565b905092915050565b600082601f8301121515611dcb57600080fd5b8135611dde611dd982612105565b6120d8565b91508082526020830160208301858383011115611dfa57600080fd5b611e058382846121c9565b50505092915050565b6000611e1a8235612189565b905092915050565b60008060408385031215611e3557600080fd5b6000611e4385828601611da4565b9250506020611e5485828601611e0e565b9150509250929050565b600060208284031215611e7057600080fd5b6000611e7e84828501611e0e565b91505092915050565b60008060408385031215611e9a57600080fd5b6000611ea885828601611e0e565b925050602083013567ffffffffffffffff811115611ec557600080fd5b611ed185828601611db8565b9150509250929050565b60008060408385031215611eee57600080fd5b6000611efc85828601611e0e565b9250506020611f0d85828601611e0e565b9150509250929050565b600080600060608486031215611f2c57600080fd5b6000611f3a86828701611e0e565b9350506020611f4b86828701611e0e565b925050604084013567ffffffffffffffff811115611f6857600080fd5b611f7486828701611db8565b9150509250925092565b611f8781612193565b82525050565b611f9681612131565b82525050565b611fa581612143565b82525050565b61010082016000820151611fc2600085018261204d565b506020820151611fd56020850182611f8d565b506040820151611fe86040850182611f9c565b506060820151611ffb6060850182611f8d565b50608082015161200e608085018261204d565b5060a082015161202160a085018261204d565b5060c082015161203460c085018261204d565b5060e082015161204760e085018261204d565b50505050565b6120568161216d565b82525050565b6000610100820190506120726000830184611fab565b92915050565b600060208201905061208d600083018461204d565b92915050565b60006080820190506120a8600083018761204d565b6120b56020830186611f7e565b6120c2604083018561204d565b6120cf606083018461204d565b95945050505050565b6000604051905081810181811067ffffffffffffffff821117156120fb57600080fd5b8060405250919050565b600067ffffffffffffffff82111561211c57600080fd5b601f19601f8301169050602081019050919050565b600061213c8261214d565b9050919050565b6000819050919050565b600073ffffffffffffffffffffffffffffffffffffffff82169050919050565b6000819050919050565b60006121828261214d565b9050919050565b6000819050919050565b600061219e826121a5565b9050919050565b60006121b0826121b7565b9050919050565b60006121c28261214d565b9050919050565b8281833760008383015250505056fea265627a7a72305820f0a8de831e951e8e8078f0bf3f0d91a1f72aee3df31c69a5e0c0a90eb64b69676c6578706572696d656e74616cf50037",
  "source": "pragma solidity ^0.5.0;\npragma experimental ABIEncoderV2;\n\ncontract GameContract {\n\n  address owner;\n  uint256 private gameId = 0;\n  mapping(address => mapping(uint => uint)) public balanceOf;\n  address constant temporalGuestPlayer = address(1);\n  mapping(uint256 => Game) private games;\n  \n  // hand 0: rock, 1: Scissors, 2: paper\n  // game status 0: game created, 1:guest joined, 2:draw game, 3: host is winner, 4: guest is winner, 5: game closed, 6: host withdrawed ether from a draw game, 7: host withdrawed ether from a draw game\n  struct Game {\n    uint256 gameId;\n    address hostPlayer;\n    bytes32 hostPlayerHand;\n    address guestPlayer;\n    uint guestPlayerHand;\n    uint gameStatus;\n    uint256 depositAmount;\n    uint256 lastUpdatedTime;\n  }\n\n  event CreatedGame(uint256 gameId, address hostPlayer, uint256 depositAmount, uint256 openTime);\n\n  constructor () public{\n    owner = msg.sender;\n  }\n\n  // 1. create game (deposit ether, hand will be encrypted with passward)\n  function createGame(uint256 _hand, string memory _passward) public payable {\n    gameId = gameId + 1;\n    bytes32 _hostPlayerHand = keccak256(abi.encodePacked(_hand, _passward));\n    games[gameId] = Game(gameId, msg.sender, _hostPlayerHand, temporalGuestPlayer, 0, 0, msg.value, now);\n    deposit(gameId);\n    emit CreatedGame(gameId, msg.sender, msg.value, now);\n  }\n\n  function deposit(uint256 _gameId) public payable {\n    balanceOf[msg.sender][_gameId] = balanceOf[msg.sender][_gameId] + msg.value;\n  }\n\n  function withdraw(uint256 _amount) private {\n    msg.sender.transfer(_amount);\n\t}\n\n  // **1** when no guest joined\n  function closeGame(uint256 _gameId) public {\n    Game memory _game = games[_gameId];\n    require(_game.gameStatus == 0);\n    require(_game.hostPlayer == msg.sender);\n    require(_game.lastUpdatedTime > now - 1 hours);\n    require(balanceOf[_game.hostPlayer][_gameId] >= _game.depositAmount);\n    withdraw(_game.depositAmount);\n    _game.gameStatus = 5;\n    games[_gameId] = _game;\n  }\n\n  // 2. Join game (deposit, hand)\n  function joinGame(uint256 _gameId, uint256 _hand) public payable {\n    Game memory _game = games[_gameId];\n    require(_game.depositAmount == msg.value);\n    require(_game.gameStatus == 0);\n    _game.guestPlayer = msg.sender;\n    _game.guestPlayerHand = _hand;\n    _game.gameStatus = 1;\n    _game.lastUpdatedTime = now;\n    deposit(_gameId);\n    games[_gameId] = _game;\n  }\n\n  // **2** when host player has no response\n  function closeGameByGuest(uint256 _gameId) public {\n    Game memory _game = games[_gameId];\n    require(_game.gameStatus == 1);\n    require(_game.guestPlayer == msg.sender);\n    require(_game.lastUpdatedTime > now - 1 hours);\n    require(balanceOf[_game.guestPlayer][_gameId] >= _game.depositAmount);\n    withdraw(_game.depositAmount);\n    _game.gameStatus = 5;\n    games[_gameId] = _game;\n  }\n\n  // 3. show game result\n  function gameResult(uint256 _gameId, uint256 _hand, string memory _passward) public {\n    Game memory _game = games[_gameId];\n    require(_game.hostPlayer == msg.sender);\n    require(_game.gameStatus == 1);\n    require(_game.hostPlayerHand == keccak256(abi.encodePacked(_hand, _passward)));\n    if (_hand ==  _game.guestPlayerHand) {\n      _game.gameStatus = 2;\n    } else if ((_hand == 0 && _game.guestPlayerHand == 1) || (_hand == 1 && _game.guestPlayerHand == 2) || (_hand == 2 && _game.guestPlayerHand == 0)) {\n      _game.gameStatus = 3;\n      balanceOf[_game.hostPlayer][_gameId] = balanceOf[_game.hostPlayer][_gameId] + _game.depositAmount;\n      balanceOf[_game.guestPlayer][_gameId] = balanceOf[_game.guestPlayer][_gameId] - _game.depositAmount;\n    } else {\n      _game.gameStatus = 4;\n      balanceOf[_game.guestPlayer][_gameId] = balanceOf[_game.guestPlayer][_gameId] + _game.depositAmount;\n      balanceOf[_game.hostPlayer][_gameId] = balanceOf[_game.hostPlayer][_gameId] - _game.depositAmount;\n    }\n    games[_gameId] = _game;\n  }\n\n  // 4-1. get ether from winner\n  function getDepositedEtherFromWinner(uint256 _gameId) public payable {\n    Game memory _game = games[_gameId];\n    require((_game.gameStatus == 3 && _game.hostPlayer == msg.sender) || (_game.gameStatus == 4) && (_game.guestPlayer == msg.sender)); \n    require(balanceOf[msg.sender][_gameId] >= _game.depositAmount*2);\n    withdraw(balanceOf[msg.sender][_gameId]);\n    balanceOf[msg.sender][_gameId] = 0;\n    _game.gameStatus = 5;\n    games[_gameId] = _game;\n  }\n\n  // 4-2. get deposited ether from a draw game\n  function getDepositedEther(uint256 _gameId) public payable {\n    Game memory _game = games[_gameId];\n    require(_game.gameStatus == 2);\n    require((_game.hostPlayer == msg.sender) || (_game.guestPlayer == msg.sender)); \n    require(balanceOf[msg.sender][_gameId] >= _game.depositAmount);\n    withdraw(balanceOf[msg.sender][_gameId]);\n    balanceOf[msg.sender][_gameId] = 0;\n    if(balanceOf[_game.hostPlayer][_gameId] == 0 && balanceOf[_game.guestPlayer][_gameId] == 0) {\n      _game.gameStatus = 5;\n      games[_gameId] = _game;\n    }\n  }\n\n  function getGameInfo(uint256 _gameId) external view returns (Game memory) {\n    return games[_gameId];\n  }\n\n  function getGameId() external view returns (uint256) {\n    return gameId;\n  }\n\n}",
  "sourcePath": "/Users/yosuke.aramaki/Desktop/solidity-code-test/contracts/GameContract.sol",
  "compiler": {
    "name": "solc",
    "version": "0.5.0+commit.1d4f565a.Emscripten.clang"
  },
  "schemaVersion": "3.0.2",
  "updatedAt": "2019-12-23T02:14:31.580Z",
  "devdoc": {
    "methods": {}
  },
  "userdoc": {
    "methods": {}
  }
}