{
  "contractName": "GameContract",
  "abi": [
    {
      "constant": true,
      "inputs": [
        {
          "name": "",
          "type": "address"
        },
        {
          "name": "",
          "type": "uint256"
        }
      ],
      "name": "balanceOf",
      "outputs": [
        {
          "name": "",
          "type": "uint256"
        }
      ],
      "payable": false,
      "stateMutability": "view",
      "type": "function",
      "signature": "0x00fdd58e"
    },
    {
      "inputs": [],
      "payable": false,
      "stateMutability": "nonpayable",
      "type": "constructor",
      "signature": "constructor"
    },
    {
      "anonymous": false,
      "inputs": [
        {
          "indexed": false,
          "name": "gameId",
          "type": "uint256"
        }
      ],
      "name": "CreatedGame",
      "type": "event",
      "signature": "0x99146aff770fef32e56c26f3d6a16a798454c52bcf1c392f0223a2aaa350e6df"
    },
    {
      "constant": false,
      "inputs": [
        {
          "name": "_hand",
          "type": "uint256"
        },
        {
          "name": "_passward",
          "type": "string"
        }
      ],
      "name": "createGame",
      "outputs": [],
      "payable": true,
      "stateMutability": "payable",
      "type": "function",
      "signature": "0xa52169a4"
    },
    {
      "constant": false,
      "inputs": [
        {
          "name": "_gameId",
          "type": "uint256"
        }
      ],
      "name": "deposit",
      "outputs": [],
      "payable": true,
      "stateMutability": "payable",
      "type": "function",
      "signature": "0xb6b55f25"
    },
    {
      "constant": false,
      "inputs": [
        {
          "name": "_gameId",
          "type": "uint256"
        }
      ],
      "name": "closeGame",
      "outputs": [],
      "payable": false,
      "stateMutability": "nonpayable",
      "type": "function",
      "signature": "0x2d6ef310"
    },
    {
      "constant": false,
      "inputs": [
        {
          "name": "_gameId",
          "type": "uint256"
        },
        {
          "name": "_hand",
          "type": "uint256"
        }
      ],
      "name": "joinGame",
      "outputs": [],
      "payable": true,
      "stateMutability": "payable",
      "type": "function",
      "signature": "0xb60b9fcb"
    },
    {
      "constant": false,
      "inputs": [
        {
          "name": "_gameId",
          "type": "uint256"
        }
      ],
      "name": "closeGameByGuest",
      "outputs": [],
      "payable": false,
      "stateMutability": "nonpayable",
      "type": "function",
      "signature": "0x2ffb1094"
    },
    {
      "constant": false,
      "inputs": [
        {
          "name": "_gameId",
          "type": "uint256"
        },
        {
          "name": "_hand",
          "type": "uint256"
        },
        {
          "name": "_passward",
          "type": "string"
        }
      ],
      "name": "gameResult",
      "outputs": [],
      "payable": false,
      "stateMutability": "nonpayable",
      "type": "function",
      "signature": "0x29b9b29f"
    },
    {
      "constant": false,
      "inputs": [
        {
          "name": "_gameId",
          "type": "uint256"
        }
      ],
      "name": "getDepositedEtherFromWinner",
      "outputs": [],
      "payable": true,
      "stateMutability": "payable",
      "type": "function",
      "signature": "0x738be308"
    },
    {
      "constant": false,
      "inputs": [
        {
          "name": "_gameId",
          "type": "uint256"
        }
      ],
      "name": "getDepositedEther",
      "outputs": [],
      "payable": true,
      "stateMutability": "payable",
      "type": "function",
      "signature": "0xf2b37d1d"
    },
    {
      "constant": true,
      "inputs": [
        {
          "name": "_gameId",
          "type": "uint256"
        }
      ],
      "name": "getGameInfo",
      "outputs": [
        {
          "components": [
            {
              "name": "gameId",
              "type": "uint256"
            },
            {
              "name": "hostPlayer",
              "type": "address"
            },
            {
              "name": "hostPlayerHand",
              "type": "bytes32"
            },
            {
              "name": "guestPlayer",
              "type": "address"
            },
            {
              "name": "guestPlayerHand",
              "type": "uint256"
            },
            {
              "name": "gameStatus",
              "type": "uint256"
            },
            {
              "name": "depositAmount",
              "type": "uint256"
            },
            {
              "name": "lastUpdatedTime",
              "type": "uint256"
            }
          ],
          "name": "",
          "type": "tuple"
        }
      ],
      "payable": false,
      "stateMutability": "view",
      "type": "function",
      "signature": "0x47e1d550"
    },
    {
      "constant": true,
      "inputs": [],
      "name": "getGameId",
      "outputs": [
        {
          "name": "",
          "type": "uint256"
        }
      ],
      "payable": false,
      "stateMutability": "view",
      "type": "function",
      "signature": "0xc0bd8351"
    }
  ],
  "bytecode": "0x6080604052600060015534801561001557600080fd5b50336000806101000a81548173ffffffffffffffffffffffffffffffffffffffff021916908373ffffffffffffffffffffffffffffffffffffffff1602179055506121c1806100656000396000f3fe6080604052600436106100ae576000357c0100000000000000000000000000000000000000000000000000000000900463ffffffff168062fdd58e146100b357806329b9b29f146100f05780632d6ef310146101195780632ffb10941461014257806347e1d5501461016b578063738be308146101a8578063a52169a4146101c4578063b60b9fcb146101e0578063b6b55f25146101fc578063c0bd835114610218578063f2b37d1d14610243575b600080fd5b3480156100bf57600080fd5b506100da60048036036100d59190810190611e5b565b61025f565b6040516100e791906120a2565b60405180910390f35b3480156100fc57600080fd5b5061011760048036036101129190810190611f50565b610284565b005b34801561012557600080fd5b50610140600480360361013b9190810190611e97565b6108af565b005b34801561014e57600080fd5b5061016960048036036101649190810190611e97565b610b8c565b005b34801561017757600080fd5b50610192600480360361018d9190810190611e97565b610e69565b60405161019f9190612086565b60405180910390f35b6101c260048036036101bd9190810190611e97565b610f80565b005b6101de60048036036101d99190810190611ec0565b61132f565b005b6101fa60048036036101f59190810190611f14565b611551565b005b61021660048036036102119190810190611e97565b61180d565b005b34801561022457600080fd5b5061022d6118b7565b60405161023a91906120a2565b60405180910390f35b61025d60048036036102589190810190611e97565b6118c1565b005b6002602052816000526040600020602052806000526040600020600091509150505481565b61028c611d68565b600360008581526020019081526020016000206101006040519081016040529081600082015481526020016001820160009054906101000a900473ffffffffffffffffffffffffffffffffffffffff1673ffffffffffffffffffffffffffffffffffffffff1673ffffffffffffffffffffffffffffffffffffffff168152602001600282015481526020016003820160009054906101000a900473ffffffffffffffffffffffffffffffffffffffff1673ffffffffffffffffffffffffffffffffffffffff1673ffffffffffffffffffffffffffffffffffffffff16815260200160048201548152602001600582015481526020016006820154815260200160078201548152505090503373ffffffffffffffffffffffffffffffffffffffff16816020015173ffffffffffffffffffffffffffffffffffffffff161415156103d457600080fd5b60018160a001511415156103e757600080fd5b82826040516020018083815260200182805190602001908083835b6020831015156104275780518252602082019150602081019050602083039250610402565b6001836020036101000a0380198251168184511680821785525050505050509050019250505060405160208183030381529060405280519060200120816040015114151561047457600080fd5b80608001518314156104905760028160a00181815250506107c8565b6000831480156104a4575060018160800151145b806104bf57506001831480156104be575060028160800151145b5b806104da57506002831480156104d9575060008160800151145b5b156106555760038160a00181815250508060c0015160026000836020015173ffffffffffffffffffffffffffffffffffffffff1673ffffffffffffffffffffffffffffffffffffffff1681526020019081526020016000206000868152602001908152602001600020540160026000836020015173ffffffffffffffffffffffffffffffffffffffff1673ffffffffffffffffffffffffffffffffffffffff1681526020019081526020016000206000868152602001908152602001600020819055508060c0015160026000836060015173ffffffffffffffffffffffffffffffffffffffff1673ffffffffffffffffffffffffffffffffffffffff1681526020019081526020016000206000868152602001908152602001600020540360026000836060015173ffffffffffffffffffffffffffffffffffffffff1673ffffffffffffffffffffffffffffffffffffffff1681526020019081526020016000206000868152602001908152602001600020819055506107c7565b60048160a00181815250508060c0015160026000836060015173ffffffffffffffffffffffffffffffffffffffff1673ffffffffffffffffffffffffffffffffffffffff1681526020019081526020016000206000868152602001908152602001600020540160026000836060015173ffffffffffffffffffffffffffffffffffffffff1673ffffffffffffffffffffffffffffffffffffffff1681526020019081526020016000206000868152602001908152602001600020819055508060c0015160026000836020015173ffffffffffffffffffffffffffffffffffffffff1673ffffffffffffffffffffffffffffffffffffffff1681526020019081526020016000206000868152602001908152602001600020540360026000836020015173ffffffffffffffffffffffffffffffffffffffff1673ffffffffffffffffffffffffffffffffffffffff1681526020019081526020016000206000868152602001908152602001600020819055505b5b80600360008681526020019081526020016000206000820151816000015560208201518160010160006101000a81548173ffffffffffffffffffffffffffffffffffffffff021916908373ffffffffffffffffffffffffffffffffffffffff1602179055506040820151816002015560608201518160030160006101000a81548173ffffffffffffffffffffffffffffffffffffffff021916908373ffffffffffffffffffffffffffffffffffffffff1602179055506080820151816004015560a0820151816005015560c0820151816006015560e0820151816007015590505050505050565b6108b7611d68565b600360008381526020019081526020016000206101006040519081016040529081600082015481526020016001820160009054906101000a900473ffffffffffffffffffffffffffffffffffffffff1673ffffffffffffffffffffffffffffffffffffffff1673ffffffffffffffffffffffffffffffffffffffff168152602001600282015481526020016003820160009054906101000a900473ffffffffffffffffffffffffffffffffffffffff1673ffffffffffffffffffffffffffffffffffffffff1673ffffffffffffffffffffffffffffffffffffffff168152602001600482015481526020016005820154815260200160068201548152602001600782015481525050905060008160a001511415156109d457600080fd5b3373ffffffffffffffffffffffffffffffffffffffff16816020015173ffffffffffffffffffffffffffffffffffffffff16141515610a1257600080fd5b8060e00151610e104203111515610a2857600080fd5b8060c0015160026000836020015173ffffffffffffffffffffffffffffffffffffffff1673ffffffffffffffffffffffffffffffffffffffff16815260200190815260200160002060008481526020019081526020016000205410151515610a8f57600080fd5b610a9c8160c00151611d1e565b60058160a001818152505080600360008481526020019081526020016000206000820151816000015560208201518160010160006101000a81548173ffffffffffffffffffffffffffffffffffffffff021916908373ffffffffffffffffffffffffffffffffffffffff1602179055506040820151816002015560608201518160030160006101000a81548173ffffffffffffffffffffffffffffffffffffffff021916908373ffffffffffffffffffffffffffffffffffffffff1602179055506080820151816004015560a0820151816005015560c0820151816006015560e082015181600701559050505050565b610b94611d68565b600360008381526020019081526020016000206101006040519081016040529081600082015481526020016001820160009054906101000a900473ffffffffffffffffffffffffffffffffffffffff1673ffffffffffffffffffffffffffffffffffffffff1673ffffffffffffffffffffffffffffffffffffffff168152602001600282015481526020016003820160009054906101000a900473ffffffffffffffffffffffffffffffffffffffff1673ffffffffffffffffffffffffffffffffffffffff1673ffffffffffffffffffffffffffffffffffffffff168152602001600482015481526020016005820154815260200160068201548152602001600782015481525050905060018160a00151141515610cb157600080fd5b3373ffffffffffffffffffffffffffffffffffffffff16816060015173ffffffffffffffffffffffffffffffffffffffff16141515610cef57600080fd5b8060e00151610e104203111515610d0557600080fd5b8060c0015160026000836060015173ffffffffffffffffffffffffffffffffffffffff1673ffffffffffffffffffffffffffffffffffffffff16815260200190815260200160002060008481526020019081526020016000205410151515610d6c57600080fd5b610d798160c00151611d1e565b60058160a001818152505080600360008481526020019081526020016000206000820151816000015560208201518160010160006101000a81548173ffffffffffffffffffffffffffffffffffffffff021916908373ffffffffffffffffffffffffffffffffffffffff1602179055506040820151816002015560608201518160030160006101000a81548173ffffffffffffffffffffffffffffffffffffffff021916908373ffffffffffffffffffffffffffffffffffffffff1602179055506080820151816004015560a0820151816005015560c0820151816006015560e082015181600701559050505050565b610e71611d68565b600360008381526020019081526020016000206101006040519081016040529081600082015481526020016001820160009054906101000a900473ffffffffffffffffffffffffffffffffffffffff1673ffffffffffffffffffffffffffffffffffffffff1673ffffffffffffffffffffffffffffffffffffffff168152602001600282015481526020016003820160009054906101000a900473ffffffffffffffffffffffffffffffffffffffff1673ffffffffffffffffffffffffffffffffffffffff1673ffffffffffffffffffffffffffffffffffffffff1681526020016004820154815260200160058201548152602001600682015481526020016007820154815250509050919050565b610f88611d68565b600360008381526020019081526020016000206101006040519081016040529081600082015481526020016001820160009054906101000a900473ffffffffffffffffffffffffffffffffffffffff1673ffffffffffffffffffffffffffffffffffffffff1673ffffffffffffffffffffffffffffffffffffffff168152602001600282015481526020016003820160009054906101000a900473ffffffffffffffffffffffffffffffffffffffff1673ffffffffffffffffffffffffffffffffffffffff1673ffffffffffffffffffffffffffffffffffffffff168152602001600482015481526020016005820154815260200160068201548152602001600782015481525050905060038160a001511480156110d557503373ffffffffffffffffffffffffffffffffffffffff16816020015173ffffffffffffffffffffffffffffffffffffffff16145b8061111f575060048160a0015114801561111e57503373ffffffffffffffffffffffffffffffffffffffff16816060015173ffffffffffffffffffffffffffffffffffffffff16145b5b151561112a57600080fd5b60028160c0015102600260003373ffffffffffffffffffffffffffffffffffffffff1673ffffffffffffffffffffffffffffffffffffffff1681526020019081526020016000206000848152602001908152602001600020541015151561119057600080fd5b6111e9600260003373ffffffffffffffffffffffffffffffffffffffff1673ffffffffffffffffffffffffffffffffffffffff168152602001908152602001600020600084815260200190815260200160002054611d1e565b6000600260003373ffffffffffffffffffffffffffffffffffffffff1673ffffffffffffffffffffffffffffffffffffffff16815260200190815260200160002060008481526020019081526020016000208190555060058160a001818152505080600360008481526020019081526020016000206000820151816000015560208201518160010160006101000a81548173ffffffffffffffffffffffffffffffffffffffff021916908373ffffffffffffffffffffffffffffffffffffffff1602179055506040820151816002015560608201518160030160006101000a81548173ffffffffffffffffffffffffffffffffffffffff021916908373ffffffffffffffffffffffffffffffffffffffff1602179055506080820151816004015560a0820151816005015560c0820151816006015560e082015181600701559050505050565b6001805401600181905550600082826040516020018083815260200182805190602001908083835b60208310151561137c5780518252602082019150602081019050602083039250611357565b6001836020036101000a038019825116818451168082178552505050505050905001925050506040516020818303038152906040528051906020012090506101006040519081016040528060015481526020013373ffffffffffffffffffffffffffffffffffffffff168152602001828152602001600173ffffffffffffffffffffffffffffffffffffffff1681526020016000815260200160008152602001348152602001428152506003600060015481526020019081526020016000206000820151816000015560208201518160010160006101000a81548173ffffffffffffffffffffffffffffffffffffffff021916908373ffffffffffffffffffffffffffffffffffffffff1602179055506040820151816002015560608201518160030160006101000a81548173ffffffffffffffffffffffffffffffffffffffff021916908373ffffffffffffffffffffffffffffffffffffffff1602179055506080820151816004015560a0820151816005015560c0820151816006015560e0820151816007015590505061151360015461180d565b7f99146aff770fef32e56c26f3d6a16a798454c52bcf1c392f0223a2aaa350e6df60015460405161154491906120a2565b60405180910390a1505050565b611559611d68565b600360008481526020019081526020016000206101006040519081016040529081600082015481526020016001820160009054906101000a900473ffffffffffffffffffffffffffffffffffffffff1673ffffffffffffffffffffffffffffffffffffffff1673ffffffffffffffffffffffffffffffffffffffff168152602001600282015481526020016003820160009054906101000a900473ffffffffffffffffffffffffffffffffffffffff1673ffffffffffffffffffffffffffffffffffffffff1673ffffffffffffffffffffffffffffffffffffffff16815260200160048201548152602001600582015481526020016006820154815260200160078201548152505090503373ffffffffffffffffffffffffffffffffffffffff16816020015173ffffffffffffffffffffffffffffffffffffffff16141515156116a257600080fd5b348160c001511415156116b457600080fd5b60008160a001511415156116c757600080fd5b33816060019073ffffffffffffffffffffffffffffffffffffffff16908173ffffffffffffffffffffffffffffffffffffffff16815250508181608001818152505060018160a0018181525050428160e00181815250506117278361180d565b80600360008581526020019081526020016000206000820151816000015560208201518160010160006101000a81548173ffffffffffffffffffffffffffffffffffffffff021916908373ffffffffffffffffffffffffffffffffffffffff1602179055506040820151816002015560608201518160030160006101000a81548173ffffffffffffffffffffffffffffffffffffffff021916908373ffffffffffffffffffffffffffffffffffffffff1602179055506080820151816004015560a0820151816005015560c0820151816006015560e08201518160070155905050505050565b34600260003373ffffffffffffffffffffffffffffffffffffffff1673ffffffffffffffffffffffffffffffffffffffff16815260200190815260200160002060008381526020019081526020016000205401600260003373ffffffffffffffffffffffffffffffffffffffff1673ffffffffffffffffffffffffffffffffffffffff16815260200190815260200160002060008381526020019081526020016000208190555050565b6000600154905090565b6118c9611d68565b600360008381526020019081526020016000206101006040519081016040529081600082015481526020016001820160009054906101000a900473ffffffffffffffffffffffffffffffffffffffff1673ffffffffffffffffffffffffffffffffffffffff1673ffffffffffffffffffffffffffffffffffffffff168152602001600282015481526020016003820160009054906101000a900473ffffffffffffffffffffffffffffffffffffffff1673ffffffffffffffffffffffffffffffffffffffff1673ffffffffffffffffffffffffffffffffffffffff168152602001600482015481526020016005820154815260200160068201548152602001600782015481525050905060028160a001511415156119e657600080fd5b3373ffffffffffffffffffffffffffffffffffffffff16816020015173ffffffffffffffffffffffffffffffffffffffff161480611a5357503373ffffffffffffffffffffffffffffffffffffffff16816060015173ffffffffffffffffffffffffffffffffffffffff16145b1515611a5e57600080fd5b8060c00151600260003373ffffffffffffffffffffffffffffffffffffffff1673ffffffffffffffffffffffffffffffffffffffff16815260200190815260200160002060008481526020019081526020016000205410151515611ac157600080fd5b611b1a600260003373ffffffffffffffffffffffffffffffffffffffff1673ffffffffffffffffffffffffffffffffffffffff168152602001908152602001600020600084815260200190815260200160002054611d1e565b6000600260003373ffffffffffffffffffffffffffffffffffffffff1673ffffffffffffffffffffffffffffffffffffffff168152602001908152602001600020600084815260200190815260200160002081905550600060026000836020015173ffffffffffffffffffffffffffffffffffffffff1673ffffffffffffffffffffffffffffffffffffffff168152602001908152602001600020600084815260200190815260200160002054148015611c285750600060026000836060015173ffffffffffffffffffffffffffffffffffffffff1673ffffffffffffffffffffffffffffffffffffffff168152602001908152602001600020600084815260200190815260200160002054145b15611d1a5760058160a001818152505080600360008481526020019081526020016000206000820151816000015560208201518160010160006101000a81548173ffffffffffffffffffffffffffffffffffffffff021916908373ffffffffffffffffffffffffffffffffffffffff1602179055506040820151816002015560608201518160030160006101000a81548173ffffffffffffffffffffffffffffffffffffffff021916908373ffffffffffffffffffffffffffffffffffffffff1602179055506080820151816004015560a0820151816005015560c0820151816006015560e082015181600701559050505b5050565b3373ffffffffffffffffffffffffffffffffffffffff166108fc829081150290604051600060405180830381858888f19350505050158015611d64573d6000803e3d6000fd5b5050565b6101006040519081016040528060008152602001600073ffffffffffffffffffffffffffffffffffffffff16815260200160008019168152602001600073ffffffffffffffffffffffffffffffffffffffff168152602001600081526020016000815260200160008152602001600081525090565b6000611de9823561215c565b905092915050565b600082601f8301121515611e0457600080fd5b8135611e17611e12826120ea565b6120bd565b91508082526020830160208301858383011115611e3357600080fd5b611e3e838284612178565b50505092915050565b6000611e53823561216e565b905092915050565b60008060408385031215611e6e57600080fd5b6000611e7c85828601611ddd565b9250506020611e8d85828601611e47565b9150509250929050565b600060208284031215611ea957600080fd5b6000611eb784828501611e47565b91505092915050565b60008060408385031215611ed357600080fd5b6000611ee185828601611e47565b925050602083013567ffffffffffffffff811115611efe57600080fd5b611f0a85828601611df1565b9150509250929050565b60008060408385031215611f2757600080fd5b6000611f3585828601611e47565b9250506020611f4685828601611e47565b9150509250929050565b600080600060608486031215611f6557600080fd5b6000611f7386828701611e47565b9350506020611f8486828701611e47565b925050604084013567ffffffffffffffff811115611fa157600080fd5b611fad86828701611df1565b9150509250925092565b611fc081612116565b82525050565b611fcf81612128565b82525050565b61010082016000820151611fec6000850182612077565b506020820151611fff6020850182611fb7565b5060408201516120126040850182611fc6565b5060608201516120256060850182611fb7565b5060808201516120386080850182612077565b5060a082015161204b60a0850182612077565b5060c082015161205e60c0850182612077565b5060e082015161207160e0850182612077565b50505050565b61208081612152565b82525050565b60006101008201905061209c6000830184611fd5565b92915050565b60006020820190506120b76000830184612077565b92915050565b6000604051905081810181811067ffffffffffffffff821117156120e057600080fd5b8060405250919050565b600067ffffffffffffffff82111561210157600080fd5b601f19601f8301169050602081019050919050565b600061212182612132565b9050919050565b6000819050919050565b600073ffffffffffffffffffffffffffffffffffffffff82169050919050565b6000819050919050565b600061216782612132565b9050919050565b6000819050919050565b8281833760008383015250505056fea265627a7a723058208d40436e42578d2b6791b5dcdc08af8344a7abf43e9a709d256b3248b0040acd6c6578706572696d656e74616cf50037",
  "source": "pragma solidity ^0.5.0;\npragma experimental ABIEncoderV2;\n\ncontract GameContract {\n\n  address owner;\n  uint256 private gameId = 0;\n  mapping(address => mapping(uint => uint)) public balanceOf;\n  address constant temporalGuestPlayer = address(1);\n  mapping(uint256 => Game) private games;\n  \n  // hand 0: rock, 1: Scissors, 2: paper\n  // game status 0: game created, 1:guest joined, 2:draw game, 3: host is winner, 4: guest is winner, 5: game closed, 6: host withdrawed ether from a draw game, 7: host withdrawed ether from a draw game\n  struct Game {\n    uint256 gameId;\n    address hostPlayer;\n    bytes32 hostPlayerHand;\n    address guestPlayer;\n    uint guestPlayerHand;\n    uint gameStatus;\n    uint256 depositAmount;\n    uint256 lastUpdatedTime;\n  }\n\n  event CreatedGame(uint256 gameId);\n\n  constructor () public{\n    owner = msg.sender;\n  }\n\n  // 1. create game (deposit ether, hand will be encrypted with passward)\n  function createGame(uint256 _hand, string memory _passward) public payable {\n    gameId = gameId + 1;\n    bytes32 _hostPlayerHand = keccak256(abi.encodePacked(_hand, _passward));\n    games[gameId] = Game(gameId, msg.sender, _hostPlayerHand, temporalGuestPlayer, 0, 0, msg.value, now);\n    deposit(gameId);\n    emit CreatedGame(gameId);\n  }\n\n  function deposit(uint256 _gameId) public payable {\n    balanceOf[msg.sender][_gameId] = balanceOf[msg.sender][_gameId] + msg.value;\n  }\n\n  function withdraw(uint256 _amount) private {\n    msg.sender.transfer(_amount);\n\t}\n\n  // **1** when no guest joined\n  function closeGame(uint256 _gameId) public {\n    Game memory _game = games[_gameId];\n    require(_game.gameStatus == 0);\n    require(_game.hostPlayer == msg.sender);\n    require(now - 1 hours > _game.lastUpdatedTime);\n    require(balanceOf[_game.hostPlayer][_gameId] >= _game.depositAmount);\n    withdraw(_game.depositAmount);\n    _game.gameStatus = 5;\n    games[_gameId] = _game;\n  }\n\n  // 2. Join game (deposit, hand)\n  function joinGame(uint256 _gameId, uint256 _hand) public payable {\n    Game memory _game = games[_gameId];\n    require(_game.hostPlayer != msg.sender);\n    require(_game.depositAmount == msg.value);\n    require(_game.gameStatus == 0);\n    _game.guestPlayer = msg.sender;\n    _game.guestPlayerHand = _hand;\n    _game.gameStatus = 1;\n    _game.lastUpdatedTime = now;\n    deposit(_gameId);\n    games[_gameId] = _game;\n  }\n\n  // **2** when host player has no response\n  function closeGameByGuest(uint256 _gameId) public {\n    Game memory _game = games[_gameId];\n    require(_game.gameStatus == 1);\n    require(_game.guestPlayer == msg.sender);\n    require(now - 1 hours > _game.lastUpdatedTime);\n    require(balanceOf[_game.guestPlayer][_gameId] >= _game.depositAmount);\n    withdraw(_game.depositAmount);\n    _game.gameStatus = 5;\n    games[_gameId] = _game;\n  }\n\n  // 3. show game result\n  function gameResult(uint256 _gameId, uint256 _hand, string memory _passward) public {\n    Game memory _game = games[_gameId];\n    require(_game.hostPlayer == msg.sender);\n    require(_game.gameStatus == 1);\n    require(_game.hostPlayerHand == keccak256(abi.encodePacked(_hand, _passward)));\n    if (_hand ==  _game.guestPlayerHand) {\n      _game.gameStatus = 2;\n    } else if ((_hand == 0 && _game.guestPlayerHand == 1) || (_hand == 1 && _game.guestPlayerHand == 2) || (_hand == 2 && _game.guestPlayerHand == 0)) {\n      _game.gameStatus = 3;\n      balanceOf[_game.hostPlayer][_gameId] = balanceOf[_game.hostPlayer][_gameId] + _game.depositAmount;\n      balanceOf[_game.guestPlayer][_gameId] = balanceOf[_game.guestPlayer][_gameId] - _game.depositAmount;\n    } else {\n      _game.gameStatus = 4;\n      balanceOf[_game.guestPlayer][_gameId] = balanceOf[_game.guestPlayer][_gameId] + _game.depositAmount;\n      balanceOf[_game.hostPlayer][_gameId] = balanceOf[_game.hostPlayer][_gameId] - _game.depositAmount;\n    }\n    games[_gameId] = _game;\n  }\n\n  // 4-1. get ether from winner\n  function getDepositedEtherFromWinner(uint256 _gameId) public payable {\n    Game memory _game = games[_gameId];\n    require((_game.gameStatus == 3 && _game.hostPlayer == msg.sender) || (_game.gameStatus == 4) && (_game.guestPlayer == msg.sender)); \n    require(balanceOf[msg.sender][_gameId] >= _game.depositAmount*2);\n    withdraw(balanceOf[msg.sender][_gameId]);\n    balanceOf[msg.sender][_gameId] = 0;\n    _game.gameStatus = 5;\n    games[_gameId] = _game;\n  }\n\n  // 4-2. get deposited ether from a draw game\n  function getDepositedEther(uint256 _gameId) public payable {\n    Game memory _game = games[_gameId];\n    require(_game.gameStatus == 2);\n    require((_game.hostPlayer == msg.sender) || (_game.guestPlayer == msg.sender)); \n    require(balanceOf[msg.sender][_gameId] >= _game.depositAmount);\n    withdraw(balanceOf[msg.sender][_gameId]);\n    balanceOf[msg.sender][_gameId] = 0;\n    if(balanceOf[_game.hostPlayer][_gameId] == 0 && balanceOf[_game.guestPlayer][_gameId] == 0) {\n      _game.gameStatus = 5;\n      games[_gameId] = _game;\n    }\n  }\n\n  function getGameInfo(uint256 _gameId) external view returns (Game memory) {\n    return games[_gameId];\n  }\n\n  function getGameId() external view returns (uint256) {\n    return gameId;\n  }\n\n}",
  "sourcePath": "/Users/yosuke.aramaki/Desktop/solidity-code-test/contracts/GameContract.sol",
  "compiler": {
    "name": "solc",
    "version": "0.5.0+commit.1d4f565a.Emscripten.clang"
  },
  "schemaVersion": "3.0.2",
  "updatedAt": "2019-12-26T08:41:57.292Z",
  "devdoc": {
    "methods": {}
  },
  "userdoc": {
    "methods": {}
  }
}