{
  "contractName": "GameContract",
  "abi": [
    {
      "constant": true,
      "inputs": [
        {
          "name": "",
          "type": "address"
        },
        {
          "name": "",
          "type": "uint256"
        }
      ],
      "name": "balanceOf",
      "outputs": [
        {
          "name": "",
          "type": "uint256"
        }
      ],
      "payable": false,
      "stateMutability": "view",
      "type": "function",
      "signature": "0x00fdd58e"
    },
    {
      "inputs": [],
      "payable": false,
      "stateMutability": "nonpayable",
      "type": "constructor",
      "signature": "constructor"
    },
    {
      "anonymous": false,
      "inputs": [
        {
          "indexed": false,
          "name": "gameId",
          "type": "uint256"
        },
        {
          "indexed": false,
          "name": "hostPlayer",
          "type": "address"
        },
        {
          "indexed": false,
          "name": "depositAmount",
          "type": "uint256"
        },
        {
          "indexed": false,
          "name": "openTime",
          "type": "uint256"
        }
      ],
      "name": "CreatedGame",
      "type": "event",
      "signature": "0x5cc2fd1a9cd222e7445cb60fb91f424948c94aa8b953af5f229d0d08942762a8"
    },
    {
      "constant": false,
      "inputs": [
        {
          "name": "_hand",
          "type": "uint256"
        },
        {
          "name": "_passward",
          "type": "string"
        }
      ],
      "name": "createGame",
      "outputs": [],
      "payable": true,
      "stateMutability": "payable",
      "type": "function",
      "signature": "0xa52169a4"
    },
    {
      "constant": false,
      "inputs": [
        {
          "name": "_gameId",
          "type": "uint256"
        }
      ],
      "name": "deposit",
      "outputs": [],
      "payable": true,
      "stateMutability": "payable",
      "type": "function",
      "signature": "0xb6b55f25"
    },
    {
      "constant": false,
      "inputs": [
        {
          "name": "_gameId",
          "type": "uint256"
        }
      ],
      "name": "closeGame",
      "outputs": [],
      "payable": false,
      "stateMutability": "nonpayable",
      "type": "function",
      "signature": "0x2d6ef310"
    },
    {
      "constant": false,
      "inputs": [
        {
          "name": "_gameId",
          "type": "uint256"
        },
        {
          "name": "_hand",
          "type": "uint256"
        }
      ],
      "name": "joinGame",
      "outputs": [],
      "payable": true,
      "stateMutability": "payable",
      "type": "function",
      "signature": "0xb60b9fcb"
    },
    {
      "constant": false,
      "inputs": [
        {
          "name": "_gameId",
          "type": "uint256"
        }
      ],
      "name": "closeGameByGuest",
      "outputs": [],
      "payable": false,
      "stateMutability": "nonpayable",
      "type": "function",
      "signature": "0x2ffb1094"
    },
    {
      "constant": false,
      "inputs": [
        {
          "name": "_gameId",
          "type": "uint256"
        },
        {
          "name": "_hand",
          "type": "uint256"
        },
        {
          "name": "_passward",
          "type": "string"
        }
      ],
      "name": "endGame",
      "outputs": [],
      "payable": true,
      "stateMutability": "payable",
      "type": "function",
      "signature": "0x36e958f5"
    },
    {
      "constant": false,
      "inputs": [
        {
          "name": "_gameId",
          "type": "uint256"
        }
      ],
      "name": "getDepositedEther",
      "outputs": [],
      "payable": true,
      "stateMutability": "payable",
      "type": "function",
      "signature": "0xf2b37d1d"
    },
    {
      "constant": true,
      "inputs": [
        {
          "name": "_gameId",
          "type": "uint256"
        }
      ],
      "name": "getGameInfo",
      "outputs": [
        {
          "components": [
            {
              "name": "gameId",
              "type": "uint256"
            },
            {
              "name": "hostPlayer",
              "type": "address"
            },
            {
              "name": "hostPlayerHand",
              "type": "bytes32"
            },
            {
              "name": "guestPlayer",
              "type": "address"
            },
            {
              "name": "depositAmount",
              "type": "uint256"
            },
            {
              "name": "guestPlayerHand",
              "type": "uint256"
            },
            {
              "name": "gameStatus",
              "type": "uint16"
            },
            {
              "name": "lastUpdatedTime",
              "type": "uint256"
            }
          ],
          "name": "",
          "type": "tuple"
        }
      ],
      "payable": false,
      "stateMutability": "view",
      "type": "function",
      "signature": "0x47e1d550"
    }
  ],
  "bytecode": "0x6080604052600060015534801561001557600080fd5b50336000806101000a81548173ffffffffffffffffffffffffffffffffffffffff021916908373ffffffffffffffffffffffffffffffffffffffff160217905550611e57806100656000396000f3fe608060405260043610610098576000357c0100000000000000000000000000000000000000000000000000000000900463ffffffff168062fdd58e1461009d5780632d6ef310146100da5780632ffb10941461010357806336e958f51461012c57806347e1d55014610148578063a52169a414610185578063b60b9fcb146101a1578063b6b55f25146101bd578063f2b37d1d146101d9575b600080fd5b3480156100a957600080fd5b506100c460048036036100bf9190810190611a4a565b6101f5565b6040516100d19190611caf565b60405180910390f35b3480156100e657600080fd5b5061010160048036036100fc9190810190611a86565b61021a565b005b34801561010f57600080fd5b5061012a60048036036101259190810190611a86565b610574565b005b61014660048036036101419190810190611b3f565b61088e565b005b34801561015457600080fd5b5061016f600480360361016a9190810190611a86565b610df9565b60405161017c9190611c93565b60405180910390f35b61019f600480360361019a9190810190611aaf565b610f26565b005b6101bb60048036036101b69190810190611b03565b61116b565b005b6101d760048036036101d29190810190611a86565b611437565b005b6101f360048036036101ee9190810190611a86565b6114e1565b005b6002602052816000526040600020602052806000526040600020600091509150505481565b610222611953565b600360008381526020019081526020016000206101006040519081016040529081600082015481526020016001820160009054906101000a900473ffffffffffffffffffffffffffffffffffffffff1673ffffffffffffffffffffffffffffffffffffffff1673ffffffffffffffffffffffffffffffffffffffff168152602001600282015481526020016003820160009054906101000a900473ffffffffffffffffffffffffffffffffffffffff1673ffffffffffffffffffffffffffffffffffffffff1673ffffffffffffffffffffffffffffffffffffffff16815260200160048201548152602001600582015481526020016006820160009054906101000a900461ffff1661ffff1661ffff168152602001600782015481525050905060008160c0015161ffff1614151561035957600080fd5b600173ffffffffffffffffffffffffffffffffffffffff16816060015173ffffffffffffffffffffffffffffffffffffffff161415151561039957600080fd5b3373ffffffffffffffffffffffffffffffffffffffff16816020015173ffffffffffffffffffffffffffffffffffffffff161415156103d757600080fd5b610e1042038160e001511115156103ed57600080fd5b806080015160026000836020015173ffffffffffffffffffffffffffffffffffffffff1673ffffffffffffffffffffffffffffffffffffffff1681526020019081526020016000206000848152602001908152602001600020541015151561045457600080fd5b6104618160800151611909565b60058160c0019061ffff16908161ffff168152505080600360008481526020019081526020016000206000820151816000015560208201518160010160006101000a81548173ffffffffffffffffffffffffffffffffffffffff021916908373ffffffffffffffffffffffffffffffffffffffff1602179055506040820151816002015560608201518160030160006101000a81548173ffffffffffffffffffffffffffffffffffffffff021916908373ffffffffffffffffffffffffffffffffffffffff1602179055506080820151816004015560a0820151816005015560c08201518160060160006101000a81548161ffff021916908361ffff16021790555060e082015181600701559050505050565b61057c611953565b600360008381526020019081526020016000206101006040519081016040529081600082015481526020016001820160009054906101000a900473ffffffffffffffffffffffffffffffffffffffff1673ffffffffffffffffffffffffffffffffffffffff1673ffffffffffffffffffffffffffffffffffffffff168152602001600282015481526020016003820160009054906101000a900473ffffffffffffffffffffffffffffffffffffffff1673ffffffffffffffffffffffffffffffffffffffff1673ffffffffffffffffffffffffffffffffffffffff16815260200160048201548152602001600582015481526020016006820160009054906101000a900461ffff1661ffff1661ffff168152602001600782015481525050905060018160c0015161ffff161415156106b357600080fd5b3373ffffffffffffffffffffffffffffffffffffffff16816060015173ffffffffffffffffffffffffffffffffffffffff161415156106f157600080fd5b610e1042038160e0015111151561070757600080fd5b806080015160026000836060015173ffffffffffffffffffffffffffffffffffffffff1673ffffffffffffffffffffffffffffffffffffffff1681526020019081526020016000206000848152602001908152602001600020541015151561076e57600080fd5b61077b8160800151611909565b60058160c0019061ffff16908161ffff168152505080600360008481526020019081526020016000206000820151816000015560208201518160010160006101000a81548173ffffffffffffffffffffffffffffffffffffffff021916908373ffffffffffffffffffffffffffffffffffffffff1602179055506040820151816002015560608201518160030160006101000a81548173ffffffffffffffffffffffffffffffffffffffff021916908373ffffffffffffffffffffffffffffffffffffffff1602179055506080820151816004015560a0820151816005015560c08201518160060160006101000a81548161ffff021916908361ffff16021790555060e082015181600701559050505050565b610896611953565b600360008581526020019081526020016000206101006040519081016040529081600082015481526020016001820160009054906101000a900473ffffffffffffffffffffffffffffffffffffffff1673ffffffffffffffffffffffffffffffffffffffff1673ffffffffffffffffffffffffffffffffffffffff168152602001600282015481526020016003820160009054906101000a900473ffffffffffffffffffffffffffffffffffffffff1673ffffffffffffffffffffffffffffffffffffffff1673ffffffffffffffffffffffffffffffffffffffff16815260200160048201548152602001600582015481526020016006820160009054906101000a900461ffff1661ffff1661ffff16815260200160078201548152505090503373ffffffffffffffffffffffffffffffffffffffff16816020015173ffffffffffffffffffffffffffffffffffffffff161415156109f457600080fd5b82826040516020018083815260200182805190602001908083835b602083101515610a345780518252602082019150602081019050602083039250610a0f565b6001836020036101000a03801982511681845116808217855250505050505090500192505050604051602081830303815290604052805190602001208160400151141515610a8157600080fd5b8060a00151831415610aa75760028160c0019061ffff16908161ffff1681525050610df3565b600083148015610abb575060018160a00151145b80610ad65750600183148015610ad5575060028160a00151145b5b80610af15750600283148015610af0575060008160a00151145b5b15610c765760038160c0019061ffff16908161ffff1681525050806080015160026000836020015173ffffffffffffffffffffffffffffffffffffffff1673ffffffffffffffffffffffffffffffffffffffff1681526020019081526020016000206000868152602001908152602001600020540160026000836020015173ffffffffffffffffffffffffffffffffffffffff1673ffffffffffffffffffffffffffffffffffffffff168152602001908152602001600020600086815260200190815260200160002081905550806080015160026000836060015173ffffffffffffffffffffffffffffffffffffffff1673ffffffffffffffffffffffffffffffffffffffff1681526020019081526020016000206000868152602001908152602001600020540360026000836060015173ffffffffffffffffffffffffffffffffffffffff1673ffffffffffffffffffffffffffffffffffffffff168152602001908152602001600020600086815260200190815260200160002081905550610df2565b60048160c0019061ffff16908161ffff1681525050806080015160026000836060015173ffffffffffffffffffffffffffffffffffffffff1673ffffffffffffffffffffffffffffffffffffffff1681526020019081526020016000206000868152602001908152602001600020540160026000836060015173ffffffffffffffffffffffffffffffffffffffff1673ffffffffffffffffffffffffffffffffffffffff168152602001908152602001600020600086815260200190815260200160002081905550806080015160026000836020015173ffffffffffffffffffffffffffffffffffffffff1673ffffffffffffffffffffffffffffffffffffffff1681526020019081526020016000206000868152602001908152602001600020540360026000836020015173ffffffffffffffffffffffffffffffffffffffff1673ffffffffffffffffffffffffffffffffffffffff1681526020019081526020016000206000868152602001908152602001600020819055505b5b50505050565b610e01611953565b600360008381526020019081526020016000206101006040519081016040529081600082015481526020016001820160009054906101000a900473ffffffffffffffffffffffffffffffffffffffff1673ffffffffffffffffffffffffffffffffffffffff1673ffffffffffffffffffffffffffffffffffffffff168152602001600282015481526020016003820160009054906101000a900473ffffffffffffffffffffffffffffffffffffffff1673ffffffffffffffffffffffffffffffffffffffff1673ffffffffffffffffffffffffffffffffffffffff16815260200160048201548152602001600582015481526020016006820160009054906101000a900461ffff1661ffff1661ffff1681526020016007820154815250509050919050565b6001805401600181905550600082826040516020018083815260200182805190602001908083835b602083101515610f735780518252602082019150602081019050602083039250610f4e565b6001836020036101000a038019825116818451168082178552505050505050905001925050506040516020818303038152906040528051906020012090506101006040519081016040528060015481526020013373ffffffffffffffffffffffffffffffffffffffff168152602001828152602001600173ffffffffffffffffffffffffffffffffffffffff16815260200160008152602001348152602001600061ffff168152602001428152506003600060015481526020019081526020016000206000820151816000015560208201518160010160006101000a81548173ffffffffffffffffffffffffffffffffffffffff021916908373ffffffffffffffffffffffffffffffffffffffff1602179055506040820151816002015560608201518160030160006101000a81548173ffffffffffffffffffffffffffffffffffffffff021916908373ffffffffffffffffffffffffffffffffffffffff1602179055506080820151816004015560a0820151816005015560c08201518160060160006101000a81548161ffff021916908361ffff16021790555060e08201518160070155905050611127600154611437565b7f5cc2fd1a9cd222e7445cb60fb91f424948c94aa8b953af5f229d0d08942762a860015433344260405161115e9493929190611cca565b60405180910390a1505050565b611173611953565b600360008481526020019081526020016000206101006040519081016040529081600082015481526020016001820160009054906101000a900473ffffffffffffffffffffffffffffffffffffffff1673ffffffffffffffffffffffffffffffffffffffff1673ffffffffffffffffffffffffffffffffffffffff168152602001600282015481526020016003820160009054906101000a900473ffffffffffffffffffffffffffffffffffffffff1673ffffffffffffffffffffffffffffffffffffffff1673ffffffffffffffffffffffffffffffffffffffff16815260200160048201548152602001600582015481526020016006820160009054906101000a900461ffff1661ffff1661ffff16815260200160078201548152505090508281600001511415156112a557600080fd5b3481608001511415156112b757600080fd5b60008160c0015161ffff161415156112ce57600080fd5b33816060019073ffffffffffffffffffffffffffffffffffffffff16908173ffffffffffffffffffffffffffffffffffffffff1681525050818160a001818152505060018160c0019061ffff16908161ffff1681525050428160e001818152505080600360008581526020019081526020016000206000820151816000015560208201518160010160006101000a81548173ffffffffffffffffffffffffffffffffffffffff021916908373ffffffffffffffffffffffffffffffffffffffff1602179055506040820151816002015560608201518160030160006101000a81548173ffffffffffffffffffffffffffffffffffffffff021916908373ffffffffffffffffffffffffffffffffffffffff1602179055506080820151816004015560a0820151816005015560c08201518160060160006101000a81548161ffff021916908361ffff16021790555060e0820151816007015590505061143283611437565b505050565b34600260003373ffffffffffffffffffffffffffffffffffffffff1673ffffffffffffffffffffffffffffffffffffffff16815260200190815260200160002060008381526020019081526020016000205401600260003373ffffffffffffffffffffffffffffffffffffffff1673ffffffffffffffffffffffffffffffffffffffff16815260200190815260200160002060008381526020019081526020016000208190555050565b6114e9611953565b600360008381526020019081526020016000206101006040519081016040529081600082015481526020016001820160009054906101000a900473ffffffffffffffffffffffffffffffffffffffff1673ffffffffffffffffffffffffffffffffffffffff1673ffffffffffffffffffffffffffffffffffffffff168152602001600282015481526020016003820160009054906101000a900473ffffffffffffffffffffffffffffffffffffffff1673ffffffffffffffffffffffffffffffffffffffff1673ffffffffffffffffffffffffffffffffffffffff16815260200160048201548152602001600582015481526020016006820160009054906101000a900461ffff1661ffff1661ffff168152602001600782015481525050905060028160c0015161ffff161015151561162157600080fd5b60038160c0015161ffff161415611734573373ffffffffffffffffffffffffffffffffffffffff16816020015173ffffffffffffffffffffffffffffffffffffffff1614151561167057600080fd5b6002816080015102600260003373ffffffffffffffffffffffffffffffffffffffff1673ffffffffffffffffffffffffffffffffffffffff168152602001908152602001600020600084815260200190815260200160002054101515156116d657600080fd5b61172f600260003373ffffffffffffffffffffffffffffffffffffffff1673ffffffffffffffffffffffffffffffffffffffff168152602001908152602001600020600084815260200190815260200160002054611909565b611905565b60048160c0015161ffff161415611847573373ffffffffffffffffffffffffffffffffffffffff16816060015173ffffffffffffffffffffffffffffffffffffffff1614151561178357600080fd5b6002816080015102600260003373ffffffffffffffffffffffffffffffffffffffff1673ffffffffffffffffffffffffffffffffffffffff168152602001908152602001600020600084815260200190815260200160002054101515156117e957600080fd5b611842600260003373ffffffffffffffffffffffffffffffffffffffff1673ffffffffffffffffffffffffffffffffffffffff168152602001908152602001600020600084815260200190815260200160002054611909565b611904565b8060800151600260003373ffffffffffffffffffffffffffffffffffffffff1673ffffffffffffffffffffffffffffffffffffffff168152602001908152602001600020600084815260200190815260200160002054101515156118aa57600080fd5b611903600260003373ffffffffffffffffffffffffffffffffffffffff1673ffffffffffffffffffffffffffffffffffffffff168152602001908152602001600020600084815260200190815260200160002054611909565b5b5b5050565b3373ffffffffffffffffffffffffffffffffffffffff166108fc829081150290604051600060405180830381858888f1935050505015801561194f573d6000803e3d6000fd5b5050565b6101006040519081016040528060008152602001600073ffffffffffffffffffffffffffffffffffffffff16815260200160008019168152602001600073ffffffffffffffffffffffffffffffffffffffff1681526020016000815260200160008152602001600061ffff168152602001600081525090565b60006119d88235611dbc565b905092915050565b600082601f83011215156119f357600080fd5b8135611a06611a0182611d3c565b611d0f565b91508082526020830160208301858383011115611a2257600080fd5b611a2d838284611e0e565b50505092915050565b6000611a428235611dce565b905092915050565b60008060408385031215611a5d57600080fd5b6000611a6b858286016119cc565b9250506020611a7c85828601611a36565b9150509250929050565b600060208284031215611a9857600080fd5b6000611aa684828501611a36565b91505092915050565b60008060408385031215611ac257600080fd5b6000611ad085828601611a36565b925050602083013567ffffffffffffffff811115611aed57600080fd5b611af9858286016119e0565b9150509250929050565b60008060408385031215611b1657600080fd5b6000611b2485828601611a36565b9250506020611b3585828601611a36565b9150509250929050565b600080600060608486031215611b5457600080fd5b6000611b6286828701611a36565b9350506020611b7386828701611a36565b925050604084013567ffffffffffffffff811115611b9057600080fd5b611b9c868287016119e0565b9150509250925092565b611baf81611dd8565b82525050565b611bbe81611d68565b82525050565b611bcd81611d7a565b82525050565b61010082016000820151611bea6000850182611c84565b506020820151611bfd6020850182611bb5565b506040820151611c106040850182611bc4565b506060820151611c236060850182611bb5565b506080820151611c366080850182611c84565b5060a0820151611c4960a0850182611c84565b5060c0820151611c5c60c0850182611c75565b5060e0820151611c6f60e0850182611c84565b50505050565b611c7e81611d84565b82525050565b611c8d81611db2565b82525050565b600061010082019050611ca96000830184611bd3565b92915050565b6000602082019050611cc46000830184611c84565b92915050565b6000608082019050611cdf6000830187611c84565b611cec6020830186611ba6565b611cf96040830185611c84565b611d066060830184611c84565b95945050505050565b6000604051905081810181811067ffffffffffffffff82111715611d3257600080fd5b8060405250919050565b600067ffffffffffffffff821115611d5357600080fd5b601f19601f8301169050602081019050919050565b6000611d7382611d92565b9050919050565b6000819050919050565b600061ffff82169050919050565b600073ffffffffffffffffffffffffffffffffffffffff82169050919050565b6000819050919050565b6000611dc782611d92565b9050919050565b6000819050919050565b6000611de382611dea565b9050919050565b6000611df582611dfc565b9050919050565b6000611e0782611d92565b9050919050565b8281833760008383015250505056fea265627a7a72305820b6685826df6ce8a1f3dc57cc1d2ccaf7ee41d7e29fa891d9d428316a92bdabd96c6578706572696d656e74616cf50037",
  "source": "pragma solidity ^0.5.0;\npragma experimental ABIEncoderV2;\n\ncontract GameContract {\n\n  address owner;\n  uint256 private gameId = 0;\n  mapping(address => mapping(uint => uint)) public balanceOf;\n  address constant temporalGuestPlayer = address(1);\n  mapping(uint256 => Game) private games;\n  \n  struct Game {\n    uint256 gameId;\n    address hostPlayer;\n    bytes32 hostPlayerHand;\n    address guestPlayer;\n    uint256 depositAmount;\n    uint guestPlayerHand;\n    uint16 gameStatus;\n    uint256 lastUpdatedTime;\n  }\n\n  event CreatedGame(uint256 gameId, address hostPlayer, uint256 depositAmount, uint256 openTime);\n\n  constructor () public{\n    owner = msg.sender;\n  }\n\n  // create game (deposit, hand, )\n  function createGame(uint256 _hand, string memory _passward) public payable {\n    gameId = gameId + 1;\n    bytes32 _hostPlayerHand = keccak256(abi.encodePacked(_hand, _passward));\n    games[gameId] = Game(gameId, msg.sender, _hostPlayerHand, temporalGuestPlayer, 0, msg.value, 0, now);\n    deposit(gameId);\n    emit CreatedGame(gameId, msg.sender, msg.value, now);\n  }\n\n  function deposit(uint256 _gameId) public payable {\n    balanceOf[msg.sender][_gameId] = balanceOf[msg.sender][_gameId] + msg.value;\n  }\n\n  function withdraw(uint256 _amount) private {\n    msg.sender.transfer(_amount);\n\t}\n\n  function closeGame(uint256 _gameId) public {\n    Game memory _game = games[_gameId];\n    require(_game.gameStatus == 0);\n    require(_game.guestPlayer != temporalGuestPlayer);\n    require(_game.hostPlayer == msg.sender);\n    require(_game.lastUpdatedTime > now - 1 hours);\n    require(balanceOf[_game.hostPlayer][_gameId] >= _game.depositAmount);\n    withdraw(_game.depositAmount);\n    _game.gameStatus = 5;\n    games[_gameId] = _game;\n  }\n\n  // Join game (deposit, hand)\n  function joinGame(uint256 _gameId, uint256 _hand) public payable {\n    Game memory _game = games[_gameId];\n    require(_game.gameId == _gameId);\n    require(_game.depositAmount == msg.value);\n    require(_game.gameStatus == 0);\n    _game.guestPlayer = msg.sender;\n    _game.guestPlayerHand = _hand;\n    _game.gameStatus = 1;\n    _game.lastUpdatedTime = now;\n    games[_gameId] = _game;\n    deposit(_gameId);\n  }\n\n  function closeGameByGuest(uint256 _gameId) public {\n    Game memory _game = games[_gameId];\n    require(_game.gameStatus == 1);\n    require(_game.guestPlayer == msg.sender);\n    require(_game.lastUpdatedTime > now - 1 hours);\n    require(balanceOf[_game.guestPlayer][_gameId] >= _game.depositAmount);\n    withdraw(_game.depositAmount);\n    _game.gameStatus = 5;\n    games[_gameId] = _game;\n  }\n\n  // \n  function endGame(uint256 _gameId, uint256 _hand, string memory _passward) public payable {\n    Game memory _game = games[_gameId];\n    require(_game.hostPlayer == msg.sender);\n    require(_game.hostPlayerHand == keccak256(abi.encodePacked(_hand, _passward)));\n    if (_hand ==  _game.guestPlayerHand) {\n      _game.gameStatus = 2;\n    } else if ((_hand == 0 && _game.guestPlayerHand == 1) || (_hand == 1 && _game.guestPlayerHand == 2) || (_hand == 2 && _game.guestPlayerHand == 0)) {\n      _game.gameStatus = 3;\n      balanceOf[_game.hostPlayer][_gameId] = balanceOf[_game.hostPlayer][_gameId] + _game.depositAmount;\n      balanceOf[_game.guestPlayer][_gameId] = balanceOf[_game.guestPlayer][_gameId] - _game.depositAmount;\n    } else {\n      _game.gameStatus = 4;\n      balanceOf[_game.guestPlayer][_gameId] = balanceOf[_game.guestPlayer][_gameId] + _game.depositAmount;\n      balanceOf[_game.hostPlayer][_gameId] = balanceOf[_game.hostPlayer][_gameId] - _game.depositAmount;\n    }\n  }\n\n  function getDepositedEther(uint256 _gameId) public payable {\n    Game memory _game = games[_gameId];\n    require(_game.gameStatus >= 2);\n    if (_game.gameStatus == 3) {\n      require(_game.hostPlayer == msg.sender);\n      require(balanceOf[msg.sender][_gameId] >= _game.depositAmount*2);\n      withdraw(balanceOf[msg.sender][_gameId]);\n    } else if (_game.gameStatus == 4) {\n      require(_game.guestPlayer == msg.sender);\n      require(balanceOf[msg.sender][_gameId] >= _game.depositAmount*2);\n      withdraw(balanceOf[msg.sender][_gameId]);\n    } else {\n      require(balanceOf[msg.sender][_gameId] >= _game.depositAmount);\n      withdraw(balanceOf[msg.sender][_gameId]);\n    }\n  }\n\n  function getGameInfo(uint256 _gameId) public view returns (Game memory) {\n    return games[_gameId];\n  }\n\n}\n\n",
  "sourcePath": "/Users/yosuke.aramaki/Desktop/solidity-code-test/contracts/GameContract.sol",
  "compiler": {
    "name": "solc",
    "version": "0.5.0+commit.1d4f565a.Emscripten.clang"
  },
  "schemaVersion": "3.0.2",
  "updatedAt": "2019-12-21T04:21:17.913Z",
  "devdoc": {
    "methods": {}
  },
  "userdoc": {
    "methods": {}
  }
}