{
  "contractName": "GameContract",
  "abi": [
    {
      "constant": true,
      "inputs": [
        {
          "name": "",
          "type": "address"
        },
        {
          "name": "",
          "type": "uint256"
        }
      ],
      "name": "balanceOf",
      "outputs": [
        {
          "name": "",
          "type": "uint256"
        }
      ],
      "payable": false,
      "stateMutability": "view",
      "type": "function",
      "signature": "0x00fdd58e"
    },
    {
      "inputs": [],
      "payable": false,
      "stateMutability": "nonpayable",
      "type": "constructor",
      "signature": "constructor"
    },
    {
      "anonymous": false,
      "inputs": [
        {
          "indexed": false,
          "name": "gameId",
          "type": "uint256"
        },
        {
          "indexed": false,
          "name": "hostPlayer",
          "type": "address"
        },
        {
          "indexed": false,
          "name": "depositAmount",
          "type": "uint256"
        },
        {
          "indexed": false,
          "name": "openTime",
          "type": "uint256"
        }
      ],
      "name": "CreatedGame",
      "type": "event",
      "signature": "0x5cc2fd1a9cd222e7445cb60fb91f424948c94aa8b953af5f229d0d08942762a8"
    },
    {
      "constant": false,
      "inputs": [
        {
          "name": "_hand",
          "type": "uint256"
        },
        {
          "name": "_passward",
          "type": "string"
        }
      ],
      "name": "createGame",
      "outputs": [],
      "payable": true,
      "stateMutability": "payable",
      "type": "function",
      "signature": "0xa52169a4"
    },
    {
      "constant": false,
      "inputs": [
        {
          "name": "_gameId",
          "type": "uint256"
        }
      ],
      "name": "deposit",
      "outputs": [],
      "payable": true,
      "stateMutability": "payable",
      "type": "function",
      "signature": "0xb6b55f25"
    },
    {
      "constant": false,
      "inputs": [
        {
          "name": "_gameId",
          "type": "uint256"
        }
      ],
      "name": "closeGame",
      "outputs": [],
      "payable": false,
      "stateMutability": "nonpayable",
      "type": "function",
      "signature": "0x2d6ef310"
    },
    {
      "constant": false,
      "inputs": [
        {
          "name": "_gameId",
          "type": "uint256"
        },
        {
          "name": "_hand",
          "type": "uint256"
        }
      ],
      "name": "joinGame",
      "outputs": [],
      "payable": true,
      "stateMutability": "payable",
      "type": "function",
      "signature": "0xb60b9fcb"
    },
    {
      "constant": false,
      "inputs": [
        {
          "name": "_gameId",
          "type": "uint256"
        }
      ],
      "name": "closeGameByGuest",
      "outputs": [],
      "payable": false,
      "stateMutability": "nonpayable",
      "type": "function",
      "signature": "0x2ffb1094"
    },
    {
      "constant": false,
      "inputs": [
        {
          "name": "_gameId",
          "type": "uint256"
        },
        {
          "name": "_hand",
          "type": "uint256"
        },
        {
          "name": "_passward",
          "type": "string"
        }
      ],
      "name": "gameResult",
      "outputs": [],
      "payable": false,
      "stateMutability": "nonpayable",
      "type": "function",
      "signature": "0x29b9b29f"
    },
    {
      "constant": false,
      "inputs": [
        {
          "name": "_gameId",
          "type": "uint256"
        }
      ],
      "name": "getDepositedEther",
      "outputs": [],
      "payable": true,
      "stateMutability": "payable",
      "type": "function",
      "signature": "0xf2b37d1d"
    },
    {
      "constant": true,
      "inputs": [
        {
          "name": "_gameId",
          "type": "uint256"
        }
      ],
      "name": "getGameInfo",
      "outputs": [
        {
          "components": [
            {
              "name": "gameId",
              "type": "uint256"
            },
            {
              "name": "hostPlayer",
              "type": "address"
            },
            {
              "name": "hostPlayerHand",
              "type": "bytes32"
            },
            {
              "name": "guestPlayer",
              "type": "address"
            },
            {
              "name": "guestPlayerHand",
              "type": "uint256"
            },
            {
              "name": "gameStatus",
              "type": "uint16"
            },
            {
              "name": "depositAmount",
              "type": "uint256"
            },
            {
              "name": "lastUpdatedTime",
              "type": "uint256"
            }
          ],
          "name": "",
          "type": "tuple"
        }
      ],
      "payable": false,
      "stateMutability": "view",
      "type": "function",
      "signature": "0x47e1d550"
    }
  ],
  "bytecode": "0x6080604052600060015534801561001557600080fd5b50336000806101000a81548173ffffffffffffffffffffffffffffffffffffffff021916908373ffffffffffffffffffffffffffffffffffffffff160217905550611f63806100656000396000f3fe608060405260043610610098576000357c0100000000000000000000000000000000000000000000000000000000900463ffffffff168062fdd58e1461009d57806329b9b29f146100da5780632d6ef310146101035780632ffb10941461012c57806347e1d55014610155578063a52169a414610192578063b60b9fcb146101ae578063b6b55f25146101ca578063f2b37d1d146101e6575b600080fd5b3480156100a957600080fd5b506100c460048036036100bf9190810190611b56565b610202565b6040516100d19190611dbb565b60405180910390f35b3480156100e657600080fd5b5061010160048036036100fc9190810190611c4b565b610227565b005b34801561010f57600080fd5b5061012a60048036036101259190810190611b92565b6108a3565b005b34801561013857600080fd5b50610153600480360361014e9190810190611b92565b610bfd565b005b34801561016157600080fd5b5061017c60048036036101779190810190611b92565b610f17565b6040516101899190611d9f565b60405180910390f35b6101ac60048036036101a79190810190611bbb565b611044565b005b6101c860048036036101c39190810190611c0f565b611289565b005b6101e460048036036101df9190810190611b92565b611543565b005b61020060048036036101fb9190810190611b92565b6115ed565b005b6002602052816000526040600020602052806000526040600020600091509150505481565b61022f611a5f565b600360008581526020019081526020016000206101006040519081016040529081600082015481526020016001820160009054906101000a900473ffffffffffffffffffffffffffffffffffffffff1673ffffffffffffffffffffffffffffffffffffffff1673ffffffffffffffffffffffffffffffffffffffff168152602001600282015481526020016003820160009054906101000a900473ffffffffffffffffffffffffffffffffffffffff1673ffffffffffffffffffffffffffffffffffffffff1673ffffffffffffffffffffffffffffffffffffffff168152602001600482015481526020016005820160009054906101000a900461ffff1661ffff1661ffff1681526020016006820154815260200160078201548152505090503373ffffffffffffffffffffffffffffffffffffffff16816020015173ffffffffffffffffffffffffffffffffffffffff1614151561038d57600080fd5b60018160a0015161ffff161415156103a457600080fd5b82826040516020018083815260200182805190602001908083835b6020831015156103e457805182526020820191506020810190506020830392506103bf565b6001836020036101000a0380198251168184511680821785525050505050509050019250505060405160208183030381529060405280519060200120816040015114151561043157600080fd5b80608001518314156104575760028160a0019061ffff16908161ffff16815250506107a3565b60008314801561046b575060018160800151145b806104865750600183148015610485575060028160800151145b5b806104a157506002831480156104a0575060008160800151145b5b156106265760038160a0019061ffff16908161ffff16815250508060c0015160026000836020015173ffffffffffffffffffffffffffffffffffffffff1673ffffffffffffffffffffffffffffffffffffffff1681526020019081526020016000206000868152602001908152602001600020540160026000836020015173ffffffffffffffffffffffffffffffffffffffff1673ffffffffffffffffffffffffffffffffffffffff1681526020019081526020016000206000868152602001908152602001600020819055508060c0015160026000836060015173ffffffffffffffffffffffffffffffffffffffff1673ffffffffffffffffffffffffffffffffffffffff1681526020019081526020016000206000868152602001908152602001600020540360026000836060015173ffffffffffffffffffffffffffffffffffffffff1673ffffffffffffffffffffffffffffffffffffffff1681526020019081526020016000206000868152602001908152602001600020819055506107a2565b60048160a0019061ffff16908161ffff16815250508060c0015160026000836060015173ffffffffffffffffffffffffffffffffffffffff1673ffffffffffffffffffffffffffffffffffffffff1681526020019081526020016000206000868152602001908152602001600020540160026000836060015173ffffffffffffffffffffffffffffffffffffffff1673ffffffffffffffffffffffffffffffffffffffff1681526020019081526020016000206000868152602001908152602001600020819055508060c0015160026000836020015173ffffffffffffffffffffffffffffffffffffffff1673ffffffffffffffffffffffffffffffffffffffff1681526020019081526020016000206000868152602001908152602001600020540360026000836020015173ffffffffffffffffffffffffffffffffffffffff1673ffffffffffffffffffffffffffffffffffffffff1681526020019081526020016000206000868152602001908152602001600020819055505b5b80600360008681526020019081526020016000206000820151816000015560208201518160010160006101000a81548173ffffffffffffffffffffffffffffffffffffffff021916908373ffffffffffffffffffffffffffffffffffffffff1602179055506040820151816002015560608201518160030160006101000a81548173ffffffffffffffffffffffffffffffffffffffff021916908373ffffffffffffffffffffffffffffffffffffffff1602179055506080820151816004015560a08201518160050160006101000a81548161ffff021916908361ffff16021790555060c0820151816006015560e0820151816007015590505050505050565b6108ab611a5f565b600360008381526020019081526020016000206101006040519081016040529081600082015481526020016001820160009054906101000a900473ffffffffffffffffffffffffffffffffffffffff1673ffffffffffffffffffffffffffffffffffffffff1673ffffffffffffffffffffffffffffffffffffffff168152602001600282015481526020016003820160009054906101000a900473ffffffffffffffffffffffffffffffffffffffff1673ffffffffffffffffffffffffffffffffffffffff1673ffffffffffffffffffffffffffffffffffffffff168152602001600482015481526020016005820160009054906101000a900461ffff1661ffff1661ffff16815260200160068201548152602001600782015481525050905060008160a0015161ffff161415156109e257600080fd5b600173ffffffffffffffffffffffffffffffffffffffff16816060015173ffffffffffffffffffffffffffffffffffffffff1614151515610a2257600080fd5b3373ffffffffffffffffffffffffffffffffffffffff16816020015173ffffffffffffffffffffffffffffffffffffffff16141515610a6057600080fd5b610e1042038160e00151111515610a7657600080fd5b8060c0015160026000836020015173ffffffffffffffffffffffffffffffffffffffff1673ffffffffffffffffffffffffffffffffffffffff16815260200190815260200160002060008481526020019081526020016000205410151515610add57600080fd5b610aea8160c00151611a15565b60058160a0019061ffff16908161ffff168152505080600360008481526020019081526020016000206000820151816000015560208201518160010160006101000a81548173ffffffffffffffffffffffffffffffffffffffff021916908373ffffffffffffffffffffffffffffffffffffffff1602179055506040820151816002015560608201518160030160006101000a81548173ffffffffffffffffffffffffffffffffffffffff021916908373ffffffffffffffffffffffffffffffffffffffff1602179055506080820151816004015560a08201518160050160006101000a81548161ffff021916908361ffff16021790555060c0820151816006015560e082015181600701559050505050565b610c05611a5f565b600360008381526020019081526020016000206101006040519081016040529081600082015481526020016001820160009054906101000a900473ffffffffffffffffffffffffffffffffffffffff1673ffffffffffffffffffffffffffffffffffffffff1673ffffffffffffffffffffffffffffffffffffffff168152602001600282015481526020016003820160009054906101000a900473ffffffffffffffffffffffffffffffffffffffff1673ffffffffffffffffffffffffffffffffffffffff1673ffffffffffffffffffffffffffffffffffffffff168152602001600482015481526020016005820160009054906101000a900461ffff1661ffff1661ffff16815260200160068201548152602001600782015481525050905060018160a0015161ffff16141515610d3c57600080fd5b3373ffffffffffffffffffffffffffffffffffffffff16816060015173ffffffffffffffffffffffffffffffffffffffff16141515610d7a57600080fd5b610e1042038160e00151111515610d9057600080fd5b8060c0015160026000836060015173ffffffffffffffffffffffffffffffffffffffff1673ffffffffffffffffffffffffffffffffffffffff16815260200190815260200160002060008481526020019081526020016000205410151515610df757600080fd5b610e048160c00151611a15565b60058160a0019061ffff16908161ffff168152505080600360008481526020019081526020016000206000820151816000015560208201518160010160006101000a81548173ffffffffffffffffffffffffffffffffffffffff021916908373ffffffffffffffffffffffffffffffffffffffff1602179055506040820151816002015560608201518160030160006101000a81548173ffffffffffffffffffffffffffffffffffffffff021916908373ffffffffffffffffffffffffffffffffffffffff1602179055506080820151816004015560a08201518160050160006101000a81548161ffff021916908361ffff16021790555060c0820151816006015560e082015181600701559050505050565b610f1f611a5f565b600360008381526020019081526020016000206101006040519081016040529081600082015481526020016001820160009054906101000a900473ffffffffffffffffffffffffffffffffffffffff1673ffffffffffffffffffffffffffffffffffffffff1673ffffffffffffffffffffffffffffffffffffffff168152602001600282015481526020016003820160009054906101000a900473ffffffffffffffffffffffffffffffffffffffff1673ffffffffffffffffffffffffffffffffffffffff1673ffffffffffffffffffffffffffffffffffffffff168152602001600482015481526020016005820160009054906101000a900461ffff1661ffff1661ffff168152602001600682015481526020016007820154815250509050919050565b6001805401600181905550600082826040516020018083815260200182805190602001908083835b602083101515611091578051825260208201915060208101905060208303925061106c565b6001836020036101000a038019825116818451168082178552505050505050905001925050506040516020818303038152906040528051906020012090506101006040519081016040528060015481526020013373ffffffffffffffffffffffffffffffffffffffff168152602001828152602001600173ffffffffffffffffffffffffffffffffffffffff16815260200160008152602001600061ffff168152602001348152602001428152506003600060015481526020019081526020016000206000820151816000015560208201518160010160006101000a81548173ffffffffffffffffffffffffffffffffffffffff021916908373ffffffffffffffffffffffffffffffffffffffff1602179055506040820151816002015560608201518160030160006101000a81548173ffffffffffffffffffffffffffffffffffffffff021916908373ffffffffffffffffffffffffffffffffffffffff1602179055506080820151816004015560a08201518160050160006101000a81548161ffff021916908361ffff16021790555060c0820151816006015560e08201518160070155905050611245600154611543565b7f5cc2fd1a9cd222e7445cb60fb91f424948c94aa8b953af5f229d0d08942762a860015433344260405161127c9493929190611dd6565b60405180910390a1505050565b611291611a5f565b600360008481526020019081526020016000206101006040519081016040529081600082015481526020016001820160009054906101000a900473ffffffffffffffffffffffffffffffffffffffff1673ffffffffffffffffffffffffffffffffffffffff1673ffffffffffffffffffffffffffffffffffffffff168152602001600282015481526020016003820160009054906101000a900473ffffffffffffffffffffffffffffffffffffffff1673ffffffffffffffffffffffffffffffffffffffff1673ffffffffffffffffffffffffffffffffffffffff168152602001600482015481526020016005820160009054906101000a900461ffff1661ffff1661ffff168152602001600682015481526020016007820154815250509050348160c001511415156113c357600080fd5b60008160a0015161ffff161415156113da57600080fd5b33816060019073ffffffffffffffffffffffffffffffffffffffff16908173ffffffffffffffffffffffffffffffffffffffff16815250508181608001818152505060018160a0019061ffff16908161ffff1681525050428160e001818152505080600360008581526020019081526020016000206000820151816000015560208201518160010160006101000a81548173ffffffffffffffffffffffffffffffffffffffff021916908373ffffffffffffffffffffffffffffffffffffffff1602179055506040820151816002015560608201518160030160006101000a81548173ffffffffffffffffffffffffffffffffffffffff021916908373ffffffffffffffffffffffffffffffffffffffff1602179055506080820151816004015560a08201518160050160006101000a81548161ffff021916908361ffff16021790555060c0820151816006015560e0820151816007015590505061153e83611543565b505050565b34600260003373ffffffffffffffffffffffffffffffffffffffff1673ffffffffffffffffffffffffffffffffffffffff16815260200190815260200160002060008381526020019081526020016000205401600260003373ffffffffffffffffffffffffffffffffffffffff1673ffffffffffffffffffffffffffffffffffffffff16815260200190815260200160002060008381526020019081526020016000208190555050565b6115f5611a5f565b600360008381526020019081526020016000206101006040519081016040529081600082015481526020016001820160009054906101000a900473ffffffffffffffffffffffffffffffffffffffff1673ffffffffffffffffffffffffffffffffffffffff1673ffffffffffffffffffffffffffffffffffffffff168152602001600282015481526020016003820160009054906101000a900473ffffffffffffffffffffffffffffffffffffffff1673ffffffffffffffffffffffffffffffffffffffff1673ffffffffffffffffffffffffffffffffffffffff168152602001600482015481526020016005820160009054906101000a900461ffff1661ffff1661ffff16815260200160068201548152602001600782015481525050905060028160a0015161ffff161015151561172d57600080fd5b60038160a0015161ffff161415611840573373ffffffffffffffffffffffffffffffffffffffff16816020015173ffffffffffffffffffffffffffffffffffffffff1614151561177c57600080fd5b60028160c0015102600260003373ffffffffffffffffffffffffffffffffffffffff1673ffffffffffffffffffffffffffffffffffffffff168152602001908152602001600020600084815260200190815260200160002054101515156117e257600080fd5b61183b600260003373ffffffffffffffffffffffffffffffffffffffff1673ffffffffffffffffffffffffffffffffffffffff168152602001908152602001600020600084815260200190815260200160002054611a15565b611a11565b60048160a0015161ffff161415611953573373ffffffffffffffffffffffffffffffffffffffff16816060015173ffffffffffffffffffffffffffffffffffffffff1614151561188f57600080fd5b60028160c0015102600260003373ffffffffffffffffffffffffffffffffffffffff1673ffffffffffffffffffffffffffffffffffffffff168152602001908152602001600020600084815260200190815260200160002054101515156118f557600080fd5b61194e600260003373ffffffffffffffffffffffffffffffffffffffff1673ffffffffffffffffffffffffffffffffffffffff168152602001908152602001600020600084815260200190815260200160002054611a15565b611a10565b8060c00151600260003373ffffffffffffffffffffffffffffffffffffffff1673ffffffffffffffffffffffffffffffffffffffff168152602001908152602001600020600084815260200190815260200160002054101515156119b657600080fd5b611a0f600260003373ffffffffffffffffffffffffffffffffffffffff1673ffffffffffffffffffffffffffffffffffffffff168152602001908152602001600020600084815260200190815260200160002054611a15565b5b5b5050565b3373ffffffffffffffffffffffffffffffffffffffff166108fc829081150290604051600060405180830381858888f19350505050158015611a5b573d6000803e3d6000fd5b5050565b6101006040519081016040528060008152602001600073ffffffffffffffffffffffffffffffffffffffff16815260200160008019168152602001600073ffffffffffffffffffffffffffffffffffffffff16815260200160008152602001600061ffff16815260200160008152602001600081525090565b6000611ae48235611ec8565b905092915050565b600082601f8301121515611aff57600080fd5b8135611b12611b0d82611e48565b611e1b565b91508082526020830160208301858383011115611b2e57600080fd5b611b39838284611f1a565b50505092915050565b6000611b4e8235611eda565b905092915050565b60008060408385031215611b6957600080fd5b6000611b7785828601611ad8565b9250506020611b8885828601611b42565b9150509250929050565b600060208284031215611ba457600080fd5b6000611bb284828501611b42565b91505092915050565b60008060408385031215611bce57600080fd5b6000611bdc85828601611b42565b925050602083013567ffffffffffffffff811115611bf957600080fd5b611c0585828601611aec565b9150509250929050565b60008060408385031215611c2257600080fd5b6000611c3085828601611b42565b9250506020611c4185828601611b42565b9150509250929050565b600080600060608486031215611c6057600080fd5b6000611c6e86828701611b42565b9350506020611c7f86828701611b42565b925050604084013567ffffffffffffffff811115611c9c57600080fd5b611ca886828701611aec565b9150509250925092565b611cbb81611ee4565b82525050565b611cca81611e74565b82525050565b611cd981611e86565b82525050565b61010082016000820151611cf66000850182611d90565b506020820151611d096020850182611cc1565b506040820151611d1c6040850182611cd0565b506060820151611d2f6060850182611cc1565b506080820151611d426080850182611d90565b5060a0820151611d5560a0850182611d81565b5060c0820151611d6860c0850182611d90565b5060e0820151611d7b60e0850182611d90565b50505050565b611d8a81611e90565b82525050565b611d9981611ebe565b82525050565b600061010082019050611db56000830184611cdf565b92915050565b6000602082019050611dd06000830184611d90565b92915050565b6000608082019050611deb6000830187611d90565b611df86020830186611cb2565b611e056040830185611d90565b611e126060830184611d90565b95945050505050565b6000604051905081810181811067ffffffffffffffff82111715611e3e57600080fd5b8060405250919050565b600067ffffffffffffffff821115611e5f57600080fd5b601f19601f8301169050602081019050919050565b6000611e7f82611e9e565b9050919050565b6000819050919050565b600061ffff82169050919050565b600073ffffffffffffffffffffffffffffffffffffffff82169050919050565b6000819050919050565b6000611ed382611e9e565b9050919050565b6000819050919050565b6000611eef82611ef6565b9050919050565b6000611f0182611f08565b9050919050565b6000611f1382611e9e565b9050919050565b8281833760008383015250505056fea265627a7a72305820949e507b593e6ea5f1913792b32132bd95160fd1faa0e1569213f5e6421ca90f6c6578706572696d656e74616cf50037",
  "source": "pragma solidity ^0.5.0;\npragma experimental ABIEncoderV2;\n\ncontract GameContract {\n\n  address owner;\n  uint256 private gameId = 0;\n  mapping(address => mapping(uint => uint)) public balanceOf;\n  address constant temporalGuestPlayer = address(1);\n  mapping(uint256 => Game) private games;\n  \n  struct Game {\n    uint256 gameId;\n    address hostPlayer;\n    bytes32 hostPlayerHand;\n    address guestPlayer;\n    uint guestPlayerHand;\n    uint16 gameStatus;\n    uint256 depositAmount;\n    uint256 lastUpdatedTime;\n  }\n\n  event CreatedGame(uint256 gameId, address hostPlayer, uint256 depositAmount, uint256 openTime);\n\n  constructor () public{\n    owner = msg.sender;\n  }\n\n  // create game (deposit, hand, )\n  function createGame(uint256 _hand, string memory _passward) public payable {\n    gameId = gameId + 1;\n    bytes32 _hostPlayerHand = keccak256(abi.encodePacked(_hand, _passward));\n    games[gameId] = Game(gameId, msg.sender, _hostPlayerHand, temporalGuestPlayer, 0, 0, msg.value, now);\n    deposit(gameId);\n    emit CreatedGame(gameId, msg.sender, msg.value, now);\n  }\n\n  function deposit(uint256 _gameId) public payable {\n    balanceOf[msg.sender][_gameId] = balanceOf[msg.sender][_gameId] + msg.value;\n  }\n\n  function withdraw(uint256 _amount) private {\n    msg.sender.transfer(_amount);\n\t}\n\n  function closeGame(uint256 _gameId) public {\n    Game memory _game = games[_gameId];\n    require(_game.gameStatus == 0);\n    require(_game.guestPlayer != temporalGuestPlayer);\n    require(_game.hostPlayer == msg.sender);\n    require(_game.lastUpdatedTime > now - 1 hours);\n    require(balanceOf[_game.hostPlayer][_gameId] >= _game.depositAmount);\n    withdraw(_game.depositAmount);\n    _game.gameStatus = 5;\n    games[_gameId] = _game;\n  }\n\n  // Join game (deposit, hand)\n  function joinGame(uint256 _gameId, uint256 _hand) public payable {\n    Game memory _game = games[_gameId];\n    require(_game.depositAmount == msg.value);\n    require(_game.gameStatus == 0);\n    _game.guestPlayer = msg.sender;\n    _game.guestPlayerHand = _hand;\n    _game.gameStatus = 1;\n    _game.lastUpdatedTime = now;\n    games[_gameId] = _game;\n    deposit(_gameId);\n  }\n\n  function closeGameByGuest(uint256 _gameId) public {\n    Game memory _game = games[_gameId];\n    require(_game.gameStatus == 1);\n    require(_game.guestPlayer == msg.sender);\n    require(_game.lastUpdatedTime > now - 1 hours);\n    require(balanceOf[_game.guestPlayer][_gameId] >= _game.depositAmount);\n    withdraw(_game.depositAmount);\n    _game.gameStatus = 5;\n    games[_gameId] = _game;\n  }\n\n  // \n  function gameResult(uint256 _gameId, uint256 _hand, string memory _passward) public {\n    Game memory _game = games[_gameId];\n    require(_game.hostPlayer == msg.sender);\n    require(_game.gameStatus == 1);\n    require(_game.hostPlayerHand == keccak256(abi.encodePacked(_hand, _passward)));\n    if (_hand ==  _game.guestPlayerHand) {\n      _game.gameStatus = 2;\n    } else if ((_hand == 0 && _game.guestPlayerHand == 1) || (_hand == 1 && _game.guestPlayerHand == 2) || (_hand == 2 && _game.guestPlayerHand == 0)) {\n      _game.gameStatus = 3;\n      balanceOf[_game.hostPlayer][_gameId] = balanceOf[_game.hostPlayer][_gameId] + _game.depositAmount;\n      balanceOf[_game.guestPlayer][_gameId] = balanceOf[_game.guestPlayer][_gameId] - _game.depositAmount;\n    } else {\n      _game.gameStatus = 4;\n      balanceOf[_game.guestPlayer][_gameId] = balanceOf[_game.guestPlayer][_gameId] + _game.depositAmount;\n      balanceOf[_game.hostPlayer][_gameId] = balanceOf[_game.hostPlayer][_gameId] - _game.depositAmount;\n    }\n    games[_gameId] = _game;\n  }\n\n  function getDepositedEther(uint256 _gameId) public payable {\n    Game memory _game = games[_gameId];\n    require(_game.gameStatus >= 2);\n    if (_game.gameStatus == 3) {\n      require(_game.hostPlayer == msg.sender);\n      require(balanceOf[msg.sender][_gameId] >= _game.depositAmount*2);\n      withdraw(balanceOf[msg.sender][_gameId]);\n    } else if (_game.gameStatus == 4) {\n      require(_game.guestPlayer == msg.sender);\n      require(balanceOf[msg.sender][_gameId] >= _game.depositAmount*2);\n      withdraw(balanceOf[msg.sender][_gameId]);\n    } else {\n      require(balanceOf[msg.sender][_gameId] >= _game.depositAmount);\n      withdraw(balanceOf[msg.sender][_gameId]);\n    }\n  }\n\n  function getGameInfo(uint256 _gameId) public view returns (Game memory) {\n    return games[_gameId];\n  }\n\n}",
  "sourcePath": "/Users/yosuke.aramaki/Desktop/solidity-code-test/contracts/GameContract.sol",
  "compiler": {
    "name": "solc",
    "version": "0.5.0+commit.1d4f565a.Emscripten.clang"
  },
  "schemaVersion": "3.0.2",
  "updatedAt": "2019-12-21T10:18:12.348Z",
  "devdoc": {
    "methods": {}
  },
  "userdoc": {
    "methods": {}
  }
}